{
  "_format": "hh-sol-artifact-1",
  "contractName": "SecondaryIssuePool",
  "sourceName": "contracts/SecondaryIssuePool.sol",
  "abi": [
    {
      "inputs": [
        {
          "internalType": "contract IVault",
          "name": "vault",
          "type": "address"
        },
        {
          "internalType": "string",
          "name": "name",
          "type": "string"
        },
        {
          "internalType": "string",
          "name": "symbol",
          "type": "string"
        },
        {
          "internalType": "address",
          "name": "security",
          "type": "address"
        },
        {
          "internalType": "address",
          "name": "currency",
          "type": "address"
        },
        {
          "internalType": "uint256",
          "name": "minOrderSize",
          "type": "uint256"
        },
        {
          "internalType": "uint256",
          "name": "tradeFeePercentage",
          "type": "uint256"
        },
        {
          "internalType": "uint256",
          "name": "pauseWindowDuration",
          "type": "uint256"
        },
        {
          "internalType": "uint256",
          "name": "bufferPeriodDuration",
          "type": "uint256"
        },
        {
          "internalType": "address",
          "name": "owner",
          "type": "address"
        }
      ],
      "stateMutability": "nonpayable",
      "type": "constructor"
    },
    {
      "anonymous": false,
      "inputs": [
        {
          "indexed": true,
          "internalType": "address",
          "name": "owner",
          "type": "address"
        },
        {
          "indexed": true,
          "internalType": "address",
          "name": "spender",
          "type": "address"
        },
        {
          "indexed": false,
          "internalType": "uint256",
          "name": "value",
          "type": "uint256"
        }
      ],
      "name": "Approval",
      "type": "event"
    },
    {
      "anonymous": false,
      "inputs": [
        {
          "indexed": true,
          "internalType": "address",
          "name": "security",
          "type": "address"
        },
        {
          "indexed": false,
          "internalType": "uint256",
          "name": "minOrderSize",
          "type": "uint256"
        },
        {
          "indexed": false,
          "internalType": "address",
          "name": "currency",
          "type": "address"
        },
        {
          "indexed": false,
          "internalType": "address",
          "name": "orderBook",
          "type": "address"
        },
        {
          "indexed": false,
          "internalType": "address",
          "name": "issueManager",
          "type": "address"
        }
      ],
      "name": "Offer",
      "type": "event"
    },
    {
      "anonymous": false,
      "inputs": [
        {
          "indexed": false,
          "internalType": "address",
          "name": "creator",
          "type": "address"
        },
        {
          "indexed": false,
          "internalType": "address",
          "name": "tokenIn",
          "type": "address"
        },
        {
          "indexed": false,
          "internalType": "address",
          "name": "tokenOut",
          "type": "address"
        },
        {
          "indexed": false,
          "internalType": "uint256",
          "name": "amountOffered",
          "type": "uint256"
        },
        {
          "indexed": false,
          "internalType": "uint256",
          "name": "priceOffered",
          "type": "uint256"
        },
        {
          "indexed": false,
          "internalType": "uint256",
          "name": "timestamp",
          "type": "uint256"
        },
        {
          "indexed": false,
          "internalType": "bytes32",
          "name": "orderRef",
          "type": "bytes32"
        }
      ],
      "name": "OrderBook",
      "type": "event"
    },
    {
      "anonymous": false,
      "inputs": [
        {
          "indexed": false,
          "internalType": "bool",
          "name": "paused",
          "type": "bool"
        }
      ],
      "name": "PausedStateChanged",
      "type": "event"
    },
    {
      "anonymous": false,
      "inputs": [
        {
          "indexed": false,
          "internalType": "bool",
          "name": "enabled",
          "type": "bool"
        }
      ],
      "name": "RecoveryModeStateChanged",
      "type": "event"
    },
    {
      "anonymous": false,
      "inputs": [
        {
          "indexed": false,
          "internalType": "uint256",
          "name": "swapFeePercentage",
          "type": "uint256"
        }
      ],
      "name": "SwapFeePercentageChanged",
      "type": "event"
    },
    {
      "anonymous": false,
      "inputs": [
        {
          "indexed": true,
          "internalType": "address",
          "name": "security",
          "type": "address"
        },
        {
          "indexed": false,
          "internalType": "bytes32",
          "name": "orderRef",
          "type": "bytes32"
        },
        {
          "indexed": false,
          "internalType": "address",
          "name": "party",
          "type": "address"
        },
        {
          "indexed": false,
          "internalType": "address",
          "name": "counterparty",
          "type": "address"
        },
        {
          "indexed": false,
          "internalType": "bytes32",
          "name": "orderType",
          "type": "bytes32"
        },
        {
          "indexed": false,
          "internalType": "uint256",
          "name": "price",
          "type": "uint256"
        },
        {
          "indexed": false,
          "internalType": "address",
          "name": "currency",
          "type": "address"
        },
        {
          "indexed": false,
          "internalType": "uint256",
          "name": "amount",
          "type": "uint256"
        },
        {
          "indexed": false,
          "internalType": "uint256",
          "name": "executionDate",
          "type": "uint256"
        }
      ],
      "name": "TradeReport",
      "type": "event"
    },
    {
      "anonymous": false,
      "inputs": [
        {
          "indexed": true,
          "internalType": "address",
          "name": "from",
          "type": "address"
        },
        {
          "indexed": true,
          "internalType": "address",
          "name": "to",
          "type": "address"
        },
        {
          "indexed": false,
          "internalType": "uint256",
          "name": "value",
          "type": "uint256"
        }
      ],
      "name": "Transfer",
      "type": "event"
    },
    {
      "inputs": [],
      "name": "DOMAIN_SEPARATOR",
      "outputs": [
        {
          "internalType": "bytes32",
          "name": "",
          "type": "bytes32"
        }
      ],
      "stateMutability": "view",
      "type": "function"
    },
    {
      "inputs": [],
      "name": "_orderbook",
      "outputs": [
        {
          "internalType": "contract Orderbook",
          "name": "",
          "type": "address"
        }
      ],
      "stateMutability": "view",
      "type": "function"
    },
    {
      "inputs": [
        {
          "internalType": "address",
          "name": "owner",
          "type": "address"
        },
        {
          "internalType": "address",
          "name": "spender",
          "type": "address"
        }
      ],
      "name": "allowance",
      "outputs": [
        {
          "internalType": "uint256",
          "name": "",
          "type": "uint256"
        }
      ],
      "stateMutability": "view",
      "type": "function"
    },
    {
      "inputs": [
        {
          "internalType": "address",
          "name": "spender",
          "type": "address"
        },
        {
          "internalType": "uint256",
          "name": "amount",
          "type": "uint256"
        }
      ],
      "name": "approve",
      "outputs": [
        {
          "internalType": "bool",
          "name": "",
          "type": "bool"
        }
      ],
      "stateMutability": "nonpayable",
      "type": "function"
    },
    {
      "inputs": [
        {
          "internalType": "address",
          "name": "account",
          "type": "address"
        }
      ],
      "name": "balanceOf",
      "outputs": [
        {
          "internalType": "uint256",
          "name": "",
          "type": "uint256"
        }
      ],
      "stateMutability": "view",
      "type": "function"
    },
    {
      "inputs": [],
      "name": "decimals",
      "outputs": [
        {
          "internalType": "uint8",
          "name": "",
          "type": "uint8"
        }
      ],
      "stateMutability": "view",
      "type": "function"
    },
    {
      "inputs": [
        {
          "internalType": "address",
          "name": "spender",
          "type": "address"
        },
        {
          "internalType": "uint256",
          "name": "amount",
          "type": "uint256"
        }
      ],
      "name": "decreaseAllowance",
      "outputs": [
        {
          "internalType": "bool",
          "name": "",
          "type": "bool"
        }
      ],
      "stateMutability": "nonpayable",
      "type": "function"
    },
    {
      "inputs": [],
      "name": "disableRecoveryMode",
      "outputs": [],
      "stateMutability": "nonpayable",
      "type": "function"
    },
    {
      "inputs": [],
      "name": "enableRecoveryMode",
      "outputs": [],
      "stateMutability": "nonpayable",
      "type": "function"
    },
    {
      "inputs": [
        {
          "internalType": "bytes4",
          "name": "selector",
          "type": "bytes4"
        }
      ],
      "name": "getActionId",
      "outputs": [
        {
          "internalType": "bytes32",
          "name": "",
          "type": "bytes32"
        }
      ],
      "stateMutability": "view",
      "type": "function"
    },
    {
      "inputs": [],
      "name": "getAuthorizer",
      "outputs": [
        {
          "internalType": "contract IAuthorizer",
          "name": "",
          "type": "address"
        }
      ],
      "stateMutability": "view",
      "type": "function"
    },
    {
      "inputs": [],
      "name": "getCurrency",
      "outputs": [
        {
          "internalType": "address",
          "name": "",
          "type": "address"
        }
      ],
      "stateMutability": "view",
      "type": "function"
    },
    {
      "inputs": [],
      "name": "getDomainSeparator",
      "outputs": [
        {
          "internalType": "bytes32",
          "name": "",
          "type": "bytes32"
        }
      ],
      "stateMutability": "view",
      "type": "function"
    },
    {
      "inputs": [],
      "name": "getMinOrderSize",
      "outputs": [
        {
          "internalType": "uint256",
          "name": "",
          "type": "uint256"
        }
      ],
      "stateMutability": "view",
      "type": "function"
    },
    {
      "inputs": [
        {
          "internalType": "address",
          "name": "account",
          "type": "address"
        }
      ],
      "name": "getNextNonce",
      "outputs": [
        {
          "internalType": "uint256",
          "name": "",
          "type": "uint256"
        }
      ],
      "stateMutability": "view",
      "type": "function"
    },
    {
      "inputs": [],
      "name": "getOwner",
      "outputs": [
        {
          "internalType": "address",
          "name": "",
          "type": "address"
        }
      ],
      "stateMutability": "view",
      "type": "function"
    },
    {
      "inputs": [],
      "name": "getPausedState",
      "outputs": [
        {
          "internalType": "bool",
          "name": "paused",
          "type": "bool"
        },
        {
          "internalType": "uint256",
          "name": "pauseWindowEndTime",
          "type": "uint256"
        },
        {
          "internalType": "uint256",
          "name": "bufferPeriodEndTime",
          "type": "uint256"
        }
      ],
      "stateMutability": "view",
      "type": "function"
    },
    {
      "inputs": [],
      "name": "getPoolId",
      "outputs": [
        {
          "internalType": "bytes32",
          "name": "",
          "type": "bytes32"
        }
      ],
      "stateMutability": "view",
      "type": "function"
    },
    {
      "inputs": [],
      "name": "getProtocolFeesCollector",
      "outputs": [
        {
          "internalType": "contract IProtocolFeesCollector",
          "name": "",
          "type": "address"
        }
      ],
      "stateMutability": "view",
      "type": "function"
    },
    {
      "inputs": [],
      "name": "getScalingFactors",
      "outputs": [
        {
          "internalType": "uint256[]",
          "name": "",
          "type": "uint256[]"
        }
      ],
      "stateMutability": "view",
      "type": "function"
    },
    {
      "inputs": [],
      "name": "getSecurity",
      "outputs": [
        {
          "internalType": "address",
          "name": "",
          "type": "address"
        }
      ],
      "stateMutability": "view",
      "type": "function"
    },
    {
      "inputs": [],
      "name": "getSwapFeePercentage",
      "outputs": [
        {
          "internalType": "uint256",
          "name": "",
          "type": "uint256"
        }
      ],
      "stateMutability": "view",
      "type": "function"
    },
    {
      "inputs": [],
      "name": "getVault",
      "outputs": [
        {
          "internalType": "contract IVault",
          "name": "",
          "type": "address"
        }
      ],
      "stateMutability": "view",
      "type": "function"
    },
    {
      "inputs": [],
      "name": "inRecoveryMode",
      "outputs": [
        {
          "internalType": "bool",
          "name": "",
          "type": "bool"
        }
      ],
      "stateMutability": "view",
      "type": "function"
    },
    {
      "inputs": [
        {
          "internalType": "address",
          "name": "spender",
          "type": "address"
        },
        {
          "internalType": "uint256",
          "name": "addedValue",
          "type": "uint256"
        }
      ],
      "name": "increaseAllowance",
      "outputs": [
        {
          "internalType": "bool",
          "name": "",
          "type": "bool"
        }
      ],
      "stateMutability": "nonpayable",
      "type": "function"
    },
    {
      "inputs": [],
      "name": "name",
      "outputs": [
        {
          "internalType": "string",
          "name": "",
          "type": "string"
        }
      ],
      "stateMutability": "view",
      "type": "function"
    },
    {
      "inputs": [
        {
          "internalType": "address",
          "name": "owner",
          "type": "address"
        }
      ],
      "name": "nonces",
      "outputs": [
        {
          "internalType": "uint256",
          "name": "",
          "type": "uint256"
        }
      ],
      "stateMutability": "view",
      "type": "function"
    },
    {
      "inputs": [
        {
          "internalType": "bytes32",
          "name": "poolId",
          "type": "bytes32"
        },
        {
          "internalType": "address",
          "name": "sender",
          "type": "address"
        },
        {
          "internalType": "address",
          "name": "recipient",
          "type": "address"
        },
        {
          "internalType": "uint256[]",
          "name": "balances",
          "type": "uint256[]"
        },
        {
          "internalType": "uint256",
          "name": "lastChangeBlock",
          "type": "uint256"
        },
        {
          "internalType": "uint256",
          "name": "protocolSwapFeePercentage",
          "type": "uint256"
        },
        {
          "internalType": "bytes",
          "name": "userData",
          "type": "bytes"
        }
      ],
      "name": "onExitPool",
      "outputs": [
        {
          "internalType": "uint256[]",
          "name": "",
          "type": "uint256[]"
        },
        {
          "internalType": "uint256[]",
          "name": "",
          "type": "uint256[]"
        }
      ],
      "stateMutability": "nonpayable",
      "type": "function"
    },
    {
      "inputs": [
        {
          "internalType": "bytes32",
          "name": "poolId",
          "type": "bytes32"
        },
        {
          "internalType": "address",
          "name": "sender",
          "type": "address"
        },
        {
          "internalType": "address",
          "name": "recipient",
          "type": "address"
        },
        {
          "internalType": "uint256[]",
          "name": "balances",
          "type": "uint256[]"
        },
        {
          "internalType": "uint256",
          "name": "lastChangeBlock",
          "type": "uint256"
        },
        {
          "internalType": "uint256",
          "name": "protocolSwapFeePercentage",
          "type": "uint256"
        },
        {
          "internalType": "bytes",
          "name": "userData",
          "type": "bytes"
        }
      ],
      "name": "onJoinPool",
      "outputs": [
        {
          "internalType": "uint256[]",
          "name": "",
          "type": "uint256[]"
        },
        {
          "internalType": "uint256[]",
          "name": "",
          "type": "uint256[]"
        }
      ],
      "stateMutability": "nonpayable",
      "type": "function"
    },
    {
      "inputs": [
        {
          "internalType": "enum IVault.SwapKind",
          "name": "kind",
          "type": "uint8"
        },
        {
          "internalType": "bytes32",
          "name": "poolId",
          "type": "bytes32"
        },
        {
          "internalType": "uint256",
          "name": "amount",
          "type": "uint256"
        },
        {
          "internalType": "bytes",
          "name": "data",
          "type": "bytes"
        },
        {
          "internalType": "uint256",
          "name": "indexIn",
          "type": "uint256"
        },
        {
          "internalType": "uint256",
          "name": "indexOut",
          "type": "uint256"
        }
      ],
      "name": "onLimit",
      "outputs": [
        {
          "internalType": "uint256",
          "name": "",
          "type": "uint256"
        }
      ],
      "stateMutability": "nonpayable",
      "type": "function"
    },
    {
      "inputs": [
        {
          "components": [
            {
              "internalType": "enum IVault.SwapKind",
              "name": "kind",
              "type": "uint8"
            },
            {
              "internalType": "contract IERC20",
              "name": "tokenIn",
              "type": "address"
            },
            {
              "internalType": "contract IERC20",
              "name": "tokenOut",
              "type": "address"
            },
            {
              "internalType": "uint256",
              "name": "amount",
              "type": "uint256"
            },
            {
              "internalType": "bytes32",
              "name": "poolId",
              "type": "bytes32"
            },
            {
              "internalType": "uint256",
              "name": "lastChangeBlock",
              "type": "uint256"
            },
            {
              "internalType": "address",
              "name": "from",
              "type": "address"
            },
            {
              "internalType": "address",
              "name": "to",
              "type": "address"
            },
            {
              "internalType": "bytes",
              "name": "userData",
              "type": "bytes"
            }
          ],
          "internalType": "struct IPoolSwapStructs.SwapRequest",
          "name": "request",
          "type": "tuple"
        },
        {
          "internalType": "uint256[]",
          "name": "balances",
          "type": "uint256[]"
        },
        {
          "internalType": "uint256",
          "name": "indexIn",
          "type": "uint256"
        },
        {
          "internalType": "uint256",
          "name": "indexOut",
          "type": "uint256"
        }
      ],
      "name": "onSwap",
      "outputs": [
        {
          "internalType": "uint256",
          "name": "",
          "type": "uint256"
        }
      ],
      "stateMutability": "nonpayable",
      "type": "function"
    },
    {
      "inputs": [],
      "name": "pause",
      "outputs": [],
      "stateMutability": "nonpayable",
      "type": "function"
    },
    {
      "inputs": [
        {
          "internalType": "address",
          "name": "owner",
          "type": "address"
        },
        {
          "internalType": "address",
          "name": "spender",
          "type": "address"
        },
        {
          "internalType": "uint256",
          "name": "value",
          "type": "uint256"
        },
        {
          "internalType": "uint256",
          "name": "deadline",
          "type": "uint256"
        },
        {
          "internalType": "uint8",
          "name": "v",
          "type": "uint8"
        },
        {
          "internalType": "bytes32",
          "name": "r",
          "type": "bytes32"
        },
        {
          "internalType": "bytes32",
          "name": "s",
          "type": "bytes32"
        }
      ],
      "name": "permit",
      "outputs": [],
      "stateMutability": "nonpayable",
      "type": "function"
    },
    {
      "inputs": [
        {
          "internalType": "bytes32",
          "name": "poolId",
          "type": "bytes32"
        },
        {
          "internalType": "address",
          "name": "sender",
          "type": "address"
        },
        {
          "internalType": "address",
          "name": "recipient",
          "type": "address"
        },
        {
          "internalType": "uint256[]",
          "name": "balances",
          "type": "uint256[]"
        },
        {
          "internalType": "uint256",
          "name": "lastChangeBlock",
          "type": "uint256"
        },
        {
          "internalType": "uint256",
          "name": "protocolSwapFeePercentage",
          "type": "uint256"
        },
        {
          "internalType": "bytes",
          "name": "userData",
          "type": "bytes"
        }
      ],
      "name": "queryExit",
      "outputs": [
        {
          "internalType": "uint256",
          "name": "bptIn",
          "type": "uint256"
        },
        {
          "internalType": "uint256[]",
          "name": "amountsOut",
          "type": "uint256[]"
        }
      ],
      "stateMutability": "view",
      "type": "function"
    },
    {
      "inputs": [
        {
          "internalType": "bytes32",
          "name": "poolId",
          "type": "bytes32"
        },
        {
          "internalType": "address",
          "name": "sender",
          "type": "address"
        },
        {
          "internalType": "address",
          "name": "recipient",
          "type": "address"
        },
        {
          "internalType": "uint256[]",
          "name": "balances",
          "type": "uint256[]"
        },
        {
          "internalType": "uint256",
          "name": "lastChangeBlock",
          "type": "uint256"
        },
        {
          "internalType": "uint256",
          "name": "protocolSwapFeePercentage",
          "type": "uint256"
        },
        {
          "internalType": "bytes",
          "name": "userData",
          "type": "bytes"
        }
      ],
      "name": "queryJoin",
      "outputs": [
        {
          "internalType": "uint256",
          "name": "bptOut",
          "type": "uint256"
        },
        {
          "internalType": "uint256[]",
          "name": "amountsIn",
          "type": "uint256[]"
        }
      ],
      "stateMutability": "view",
      "type": "function"
    },
    {
      "inputs": [
        {
          "internalType": "contract IERC20",
          "name": "token",
          "type": "address"
        },
        {
          "internalType": "bytes",
          "name": "poolConfig",
          "type": "bytes"
        }
      ],
      "name": "setAssetManagerPoolConfig",
      "outputs": [],
      "stateMutability": "nonpayable",
      "type": "function"
    },
    {
      "inputs": [
        {
          "internalType": "uint256",
          "name": "swapFeePercentage",
          "type": "uint256"
        }
      ],
      "name": "setSwapFeePercentage",
      "outputs": [],
      "stateMutability": "nonpayable",
      "type": "function"
    },
    {
      "inputs": [],
      "name": "symbol",
      "outputs": [
        {
          "internalType": "string",
          "name": "",
          "type": "string"
        }
      ],
      "stateMutability": "view",
      "type": "function"
    },
    {
      "inputs": [],
      "name": "totalSupply",
      "outputs": [
        {
          "internalType": "uint256",
          "name": "",
          "type": "uint256"
        }
      ],
      "stateMutability": "view",
      "type": "function"
    },
    {
      "inputs": [
        {
          "internalType": "address",
          "name": "recipient",
          "type": "address"
        },
        {
          "internalType": "uint256",
          "name": "amount",
          "type": "uint256"
        }
      ],
      "name": "transfer",
      "outputs": [
        {
          "internalType": "bool",
          "name": "",
          "type": "bool"
        }
      ],
      "stateMutability": "nonpayable",
      "type": "function"
    },
    {
      "inputs": [
        {
          "internalType": "address",
          "name": "sender",
          "type": "address"
        },
        {
          "internalType": "address",
          "name": "recipient",
          "type": "address"
        },
        {
          "internalType": "uint256",
          "name": "amount",
          "type": "uint256"
        }
      ],
      "name": "transferFrom",
      "outputs": [
        {
          "internalType": "bool",
          "name": "",
          "type": "bool"
        }
      ],
      "stateMutability": "nonpayable",
      "type": "function"
    },
    {
      "inputs": [],
      "name": "unpause",
      "outputs": [],
      "stateMutability": "nonpayable",
      "type": "function"
    }
  ],
  "bytecode": "0x6102e06040523480156200001257600080fd5b5060405162009d2038038062009d20833981016040819052620000359162000b8d565b8960008a8a620000478b8b30620004d6565b6040805160038082526080820190925290602082016060803683370190505089898989828289898d85336001600160a01b031660001b8480604051806040016040528060018152602001603160f81b81525087878160039080519060200190620000b3929190620009f7565b508051620000c9906004906020840190620009f7565b50506005805460ff19166012179055508151602092830120608052805191012060a052507f8b73c3c69bb8fe3d512ecc4cf759cc79239f7b179b0ffacaa9a75d522b39400f60c05260e0526001600160601b0319606091821b81166101005291901b1661012052506200014790506276a700831115610194620005a5565b6200015b62278d00821115610195620005a5565b42909101610140819052016101605285516200017d906002111560c8620005a5565b620001976200018b620005ba565b8751111560c9620005a5565b620001ad86620005bf60201b620029461760201c565b620001b884620005cb565b6040516309b2760f60e01b81526000906001600160a01b038c16906309b2760f90620001e9908d9060040162000d56565b602060405180830381600087803b1580156200020457600080fd5b505af115801562000219573d6000803e3d6000fd5b505050506040513d601f19601f820116820180604052508101906200023f919062000b55565b604051633354e3e960e11b81529091506001600160a01b038c16906366a9c7d290620002749084908b908b9060040162000cba565b600060405180830381600087803b1580156200028f57600080fd5b505af1158015620002a4573d6000803e3d6000fd5b505050508061018081815250508a6001600160a01b031663d2946c2b6040518163ffffffff1660e01b815260040160206040518083038186803b158015620002eb57600080fd5b505afa15801562000300573d6000803e3d6000fd5b505050506040513d601f19601f8201168201806040525081019062000326919062000b6e565b6001600160a01b03166101a0816001600160a01b031660601b815250505050505050505050505050866001600160a01b03166101c0816001600160a01b031660601b81525050856001600160a01b03166101e0816001600160a01b031660601b8152505089600b60006101000a8154816001600160a01b0302191690836001600160a01b031602179055506000806000620003c98a8a306200065f60201b60201c565b6102608190526102808390526102a082905291945092509050620003ed8a62000755565b61020052620003fc8962000755565b61022052600a8890556102408790526001600160601b0319606085901b166102c05260405184908b908b903090620004349062000a7c565b62000443949392919062000c8f565b604051809103906000f08015801562000460573d6000803e3d6000fd5b50600980546001600160a01b0319166001600160a01b0392831617908190556040518c8316927f32e7b5e5c88bb4ec1dca71e1e00fc2444e236858d09faa9ddbb9d8c710549ecb92620004bb928d928f9216908a9062000d74565b60405180910390a25050505050505050505050505062000dbd565b606060008080620004e98787876200065f565b60408051600380825260808201909252939650919450925060208201606080368337019050509350868484815181106200051f57fe5b60200260200101906001600160a01b031690816001600160a01b031681525050858483815181106200054d57fe5b60200260200101906001600160a01b031690816001600160a01b031681525050848482815181106200057b57fe5b60200260200101906001600160a01b031690816001600160a01b0316815250505050509392505050565b81620005b657620005b68162000829565b5050565b600390565b80620005b6816200083e565b620005e4620005d9620008ca565b82101560cb620005a5565b620005fd620005f2620008d3565b82111560ca620005a5565b6200061f8160c0603f600854620008df60201b6200295017909392919060201c565b6008556040517fa9ba3ffe0b6c366b81232caab38605a0699ad5398d6cce76f91ee809e322dafc906200065490839062000d6b565b60405180910390a150565b6000806000846001600160a01b0316866001600160a01b03161015620006e857836001600160a01b0316856001600160a01b03161015620006ab5750600091506001905060026200074c565b836001600160a01b0316866001600160a01b03161015620006d75750600091506002905060016200074c565b50600191506002905060006200074c565b846001600160a01b0316846001600160a01b03161015620007145750600291506001905060006200074c565b856001600160a01b0316846001600160a01b03161015620007405750600291506000905060016200074c565b50600191506000905060025b93509350939050565b60006001600160a01b038216301415620007795750670de0b6b3a764000062000824565b6000826001600160a01b031663313ce5676040518163ffffffff1660e01b815260040160206040518083038186803b158015620007b557600080fd5b505afa158015620007ca573d6000803e3d6000fd5b505050506040513d601f19601f82011682018060405250810190620007f0919062000c6c565b60ff16905060006200080f6012836200090460201b620029781760201c565b905080600a0a670de0b6b3a764000002925050505b919050565b6200083b816210905360ea1b62000921565b50565b6002815110156200084f576200083b565b6000816000815181106200085f57fe5b602002602001015190506000600190505b8251811015620008c55760008382815181106200088957fe5b60200260200101519050620008ba816001600160a01b0316846001600160a01b0316106065620005a560201b60201c565b915060010162000870565b505050565b64e8d4a5100090565b67016345785d8a000090565b6000620008ee84848462000982565b506001901b60001901811b1992909216911b1790565b600062000916838311156001620005a5565b508082035b92915050565b62461bcd60e51b600090815260206004526007602452600a808404818106603090810160081b958390069590950190829004918206850160101b01602363ffffff0060e086901c160160181b0190930160c81b60445260e882901c90606490fd5b6200099361010083106064620005a5565b620009cc60018210158015620009c45750620009c060ff8461010003620009dd60201b6200298e1760201c565b8211155b6064620005a5565b620008c583821c156101b4620005a5565b6000818310620009ee5781620009f0565b825b9392505050565b828054600181600116156101000203166002900490600052602060002090601f016020900481019282601f1062000a3a57805160ff191683800117855562000a6a565b8280016001018555821562000a6a579182015b8281111562000a6a57825182559160200191906001019062000a4d565b5062000a7892915062000a8a565b5090565b613e9a8062005e8683390190565b5b8082111562000a78576000815560010162000a8b565b80516200091b8162000da7565b600082601f83011262000abf578081fd5b81516001600160401b038082111562000ad6578283fd5b6040516020601f8401601f191682018101838111838210171562000af8578586fd5b8060405250819450838252868185880101111562000b1557600080fd5b600092505b8383101562000b39578583018101518284018201529182019162000b1a565b8383111562000b4b5760008185840101525b5050505092915050565b60006020828403121562000b67578081fd5b5051919050565b60006020828403121562000b80578081fd5b8151620009f08162000da7565b6000806000806000806000806000806101408b8d03121562000bad578586fd5b62000bb98c8c62000aa1565b60208c0151909a506001600160401b038082111562000bd6578788fd5b62000be48e838f0162000aae565b9a5060408d015191508082111562000bfa578788fd5b5062000c098d828e0162000aae565b98505062000c1b8c60608d0162000aa1565b965062000c2c8c60808d0162000aa1565b955060a08b0151945060c08b0151935060e08b015192506101008b0151915062000c5b8c6101208d0162000aa1565b90509295989b9194979a5092959850565b60006020828403121562000c7e578081fd5b815160ff81168114620009f0578182fd5b6001600160a01b03948516815292841660208401529083166040830152909116606082015260800190565b60006060820185835260206060818501528186518084526080860191508288019350845b8181101562000d065762000cf3855162000d9b565b8352938301939183019160010162000cde565b505084810360408601528551808252908201925081860190845b8181101562000d485762000d35835162000d9b565b8552938301939183019160010162000d20565b509298975050505050505050565b602081016003831062000d6557fe5b91905290565b90815260200190565b9384526001600160a01b039283166020850152908216604084015216606082015260800190565b6001600160a01b031690565b6001600160a01b03811681146200083b57600080fd5b60805160a05160c05160e0516101005160601c6101205160601c6101405161016051610180516101a05160601c6101c05160601c6101e05160601c61020051610220516102405161026051610280516102a0516102c05160601c614ed362000fb3600039806135265250806108235280611fde5280612a8e52806135a152806135fb5250806108d55280611c715280611ce452806120905280612a28525080612ae352806139f3525050806111975280612ab652806135d45250806111635280612a50525080610620528061069f52806107c75280610bdb5280610c325280610c925280610d765280611118528061129d5280611361528061140a528061157452806116d3528061181452806118bc5280611c985280611d0b5280611de95280611e685280611f82528061215652806122be528061240d52508061065f52806106df52806108795280610a145280610b225280610b795280610cd15280610d375280610dd8528061125e528061132252806114495280611535528061171252806117d5528061187d5280611a7d5280611cbe5280611d315280611e285280611ea852806120345280612195528061227f525080612720525080611ad0525080612cbd525080612c995250806126085250806125e452508061256e52508061367e5250806136c052508061369f5250614ed36000f3fe608060405234801561001057600080fd5b50600436106102de5760003560e01c806370a0823111610186578063a457c2d7116100e3578063d2946c2b11610097578063dd62ed3e11610071578063dd62ed3e14610565578063ed24911d14610578578063fd19cac814610580576102de565b8063d2946c2b14610537578063d505accf1461053f578063d5c096c414610552576102de565b8063aaabadc5116100c8578063aaabadc51461051f578063b35056b814610527578063b7b814fc1461052f576102de565b8063a457c2d7146104f9578063a9059cbb1461050c576102de565b806387ec68171161013a5780638d928af81161011f5780638d928af8146104d657806390193b7c146104de57806395d89b41146104f1576102de565b806387ec6817146104bb578063893d20e8146104ce576102de565b80637ecebe001161016b5780637ecebe001461048d5780638456cb59146104a0578063851c1bb3146104a8576102de565b806370a082311461045957806374f3b0091461046c576102de565b806338e9922e1161023f57806350dd6ed9116101f35780636028bfd4116101cd5780636028bfd41461041d578063688d6b791461043e5780636945c1fd14610451576102de565b806350dd6ed9146103fa57806354a844ba1461040d57806355c6762814610415576102de565b8063395093511161022457806339509351146103d75780633f4ba83a146103ea5780634d6d0fd0146103f2576102de565b806338e9922e146103ba57806338fff2d0146103cf576102de565b80631dd746ea116102965780632541897f1161027b5780632541897f14610388578063313ce5671461039d5780633644e515146103b2576102de565b80631dd746ea1461036057806323b872dd14610375576102de565b8063095ea7b3116102c7578063095ea7b31461032157806318160ddd146103415780631c0de05114610349576102de565b806301ec954a146102e357806306fdde031461030c575b600080fd5b6102f66102f13660046145c4565b610588565b6040516103039190614a70565b60405180910390f35b61031461191c565b6040516103039190614b8d565b61033461032f3660046141b2565b6119b2565b6040516103039190614a4d565b6102f66119c9565b6103516119cf565b60405161030393929190614a58565b6103686119f8565b6040516103039190614a0c565b610334610383366004614102565b611a07565b610390611a7b565b604051610303919061499e565b6103a5611a9f565b6040516103039190614dc7565b6102f6611aa8565b6103cd6103c83660046147fd565b611ab2565b005b6102f6611ace565b6103346103e53660046141b2565b611af2565b6103cd611b2d565b6102f6611b41565b6103cd6104083660046143f5565b611b47565b6103cd611b65565b6102f6611b77565b61043061042b3660046142c9565b611b8a565b604051610303929190614dae565b6102f661044c3660046144d4565b611bc1565b61039061240b565b6102f66104673660046140ae565b61242f565b61047f61047a3660046142c9565b61244a565b604051610303929190614a1f565b6102f661049b3660046140ae565b61254d565b6103cd612558565b6102f66104b6366004614399565b61256a565b6104306104c93660046142c9565b6125bc565b6103906125e2565b610390612606565b6102f66104ec3660046140ae565b61262a565b610314612645565b6103346105073660046141b2565b6126a6565b61033461051a3660046141b2565b6126e4565b6103906126f1565b6103346126fb565b6103cd61270c565b61039061271e565b6103cd61054d366004614142565b612742565b61047f6105603660046142c9565b6127cd565b6102f66105733660046140ca565b6128f0565b6102f661292d565b610390612937565b600084608001516105b561059a612606565b6001600160a01b0316336001600160a01b03161460cd6129a6565b6105ca6105c0611ace565b82146101f46129a6565b6105d26129b4565b6000865160018111156105e157fe5b14806105f957506001865160018111156105f757fe5b145b61061e5760405162461bcd60e51b815260040161061590614c7c565b60405180910390fd5b7f00000000000000000000000000000000000000000000000000000000000000006001600160a01b031686604001516001600160a01b0316148061069757507f00000000000000000000000000000000000000000000000000000000000000006001600160a01b031686604001516001600160a01b0316145b806106d757507f00000000000000000000000000000000000000000000000000000000000000006001600160a01b031686602001516001600160a01b0316145b8061071757507f00000000000000000000000000000000000000000000000000000000000000006001600160a01b031686602001516001600160a01b0316145b6107335760405162461bcd60e51b815260040161061590614ba0565b606061073d6129c7565b90506107498682612b3a565b610751613eae565b606060008080808c51600181111561076557fe5b14156107965761078c8c60600151878c8151811061077f57fe5b6020026020010151612ba9565b60608d01526107c5565b60018c5160018111156107a557fe5b14156107c5576107bf8c60600151878b8151811061077f57fe5b60608d01525b7f00000000000000000000000000000000000000000000000000000000000000006001600160a01b03168c602001516001600160a01b0316148015610816575060008c51600181111561081457fe5b145b15610877578b606001518b7f00000000000000000000000000000000000000000000000000000000000000008151811061084c57fe5b602002602001015110156108725760405162461bcd60e51b815260040161061590614c0e565b610924565b7f00000000000000000000000000000000000000000000000000000000000000006001600160a01b03168c602001516001600160a01b03161480156108c8575060008c5160018111156108c657fe5b145b15610924578b606001518b7f0000000000000000000000000000000000000000000000000000000000000000815181106108fe57fe5b602002602001015110156109245760405162461bcd60e51b815260040161061590614cb3565b6101008c015151156113b6578b61010001518060200190518101906109499190614547565b815191955093506113b15761095c613ec5565b60095460c08e01516040517fca142f750000000000000000000000000000000000000000000000000000000081526001600160a01b039092169163ca142f75916109aa9188906004016149f3565b60c06040518083038186803b1580156109c257600080fd5b505afa1580156109d6573d6000803e3d6000fd5b505050506040513d601f19601f820116820180604052508101906109fa9190614797565b60095460c08f015160208301519293506001600160a01b037f000000000000000000000000000000000000000000000000000000000000000081169392811692635778472a92908216911614610a54578360400151610a57565b83515b6040518263ffffffff1660e01b8152600401610a739190614a70565b6101206040518083038186803b158015610a8c57600080fd5b505afa158015610aa0573d6000803e3d6000fd5b505050506040513d601f19601f82011682018060405250810190610ac491906146e3565b602001516001600160a01b031614610afc577f63757272656e6379000000000000000000000000000000000000000000000000610b1e565b7f73656375726974790000000000000000000000000000000000000000000000005b92507f00000000000000000000000000000000000000000000000000000000000000006001600160a01b03168d602001516001600160a01b0316148015610b71575060008d516001811115610b6f57fe5b145b80610bc857507f00000000000000000000000000000000000000000000000000000000000000006001600160a01b03168d604001516001600160a01b0316148015610bc8575060018d516001811115610bc657fe5b145b15610bd9578060a001519150610c8e565b7f00000000000000000000000000000000000000000000000000000000000000006001600160a01b03168d602001516001600160a01b0316148015610c2a575060008d516001811115610c2857fe5b145b80610c8157507f00000000000000000000000000000000000000000000000000000000000000006001600160a01b03168d604001516001600160a01b0316148015610c81575060018d516001811115610c7f57fe5b145b15610c8e57806080015191505b60007f00000000000000000000000000000000000000000000000000000000000000006001600160a01b03168e604001516001600160a01b03161480610d0957507f00000000000000000000000000000000000000000000000000000000000000006001600160a01b03168e602001516001600160a01b0316145b15610d3557507f53656c6c00000000000000000000000000000000000000000000000000000000610dd6565b7f00000000000000000000000000000000000000000000000000000000000000006001600160a01b03168e604001516001600160a01b03161480610dae57507f00000000000000000000000000000000000000000000000000000000000000006001600160a01b03168e602001516001600160a01b0316145b15610dd657507f42757900000000000000000000000000000000000000000000000000000000005b7f00000000000000000000000000000000000000000000000000000000000000006001600160a01b03167fd6a806535ec4f172139ede2e9d6bbbe20957ca8a454fd40c9747fe139efe4247857f73656375726974790000000000000000000000000000000000000000000000008714610eef5760095460408087015190517f5778472a0000000000000000000000000000000000000000000000000000000081526001600160a01b0390921691635778472a91610e9591600401614a70565b6101206040518083038186803b158015610eae57600080fd5b505afa158015610ec2573d6000803e3d6000fd5b505050506040513d601f19601f82011682018060405250810190610ee691906146e3565b60e00151610f8e565b60095485516040517f5778472a0000000000000000000000000000000000000000000000000000000081526001600160a01b0390921691635778472a91610f3891600401614a70565b6101206040518083038186803b158015610f5157600080fd5b505afa158015610f65573d6000803e3d6000fd5b505050506040513d601f19601f82011682018060405250810190610f8991906146e3565b60e001515b7f63757272656e6379000000000000000000000000000000000000000000000000881461105b5760095460408088015190517f5778472a0000000000000000000000000000000000000000000000000000000081526001600160a01b0390921691635778472a9161100191600401614a70565b6101206040518083038186803b15801561101a57600080fd5b505afa15801561102e573d6000803e3d6000fd5b505050506040513d601f19601f8201168201806040525081019061105291906146e3565b60e001516110fa565b60095486516040517f5778472a0000000000000000000000000000000000000000000000000000000081526001600160a01b0390921691635778472a916110a491600401614a70565b6101206040518083038186803b1580156110bd57600080fd5b505afa1580156110d1573d6000803e3d6000fd5b505050506040513d601f19601f820116820180604052508101906110f591906146e3565b60e001515b8561111688608001518960a00151612bb590919063ffffffff16565b7f00000000000000000000000000000000000000000000000000000000000000008a8a60600151604051611151989796959493929190614a98565b60405180910390a261118782608001517f0000000000000000000000000000000000000000000000000000000000000000612c06565b608083015260a08201516111bb907f0000000000000000000000000000000000000000000000000000000000000000612c06565b60a083015260095460c08f01516040517fd729cf6c0000000000000000000000000000000000000000000000000000000081526001600160a01b039092169163d729cf6c9161120e9189906004016149f3565b600060405180830381600087803b15801561122857600080fd5b505af115801561123c573d6000803e3d6000fd5b5060009250611249915050565b8e51600181111561125657fe5b141561130b577f00000000000000000000000000000000000000000000000000000000000000006001600160a01b03168e602001516001600160a01b031614806112d557507f00000000000000000000000000000000000000000000000000000000000000006001600160a01b03168e602001516001600160a01b0316145b15611306576112f783898d815181106112ea57fe5b6020026020010151612c06565b99505050505050505050611913565b6113ae565b60018e51600181111561131a57fe5b14156113ae577f00000000000000000000000000000000000000000000000000000000000000006001600160a01b03168e604001516001600160a01b0316148061139957507f00000000000000000000000000000000000000000000000000000000000000006001600160a01b03168e604001516001600160a01b0316145b156113ae576112f783898e815181106112ea57fe5b50505b6113cd565b604080518082019091526000808252602082015294505b6000855160028111156113dc57fe5b141561190c57600a548c6060015110156114085760405162461bcd60e51b815260040161061590614bd7565b7f00000000000000000000000000000000000000000000000000000000000000006001600160a01b03168c604001516001600160a01b0316148061148157507f00000000000000000000000000000000000000000000000000000000000000006001600160a01b03168c602001516001600160a01b0316145b15611533576009546040517f65fe757e0000000000000000000000000000000000000000000000000000000081526001600160a01b03909116906365fe757e906114d4908f908990600190600401614cea565b606060405180830381600087803b1580156114ee57600080fd5b505af1158015611502573d6000803e3d6000fd5b505050506040513d601f19601f82011682018060405250810190611526919061436c565b909450909250905061165a565b7f00000000000000000000000000000000000000000000000000000000000000006001600160a01b03168c604001516001600160a01b031614806115ac57507f00000000000000000000000000000000000000000000000000000000000000006001600160a01b03168c602001516001600160a01b0316145b1561165a576009546040517f65fe757e0000000000000000000000000000000000000000000000000000000081526001600160a01b03909116906365fe757e906115ff908f908990600090600401614cea565b606060405180830381600087803b15801561161957600080fd5b505af115801561162d573d6000803e3d6000fd5b505050506040513d601f19601f82011682018060405250810190611651919061436c565b90945090925090505b806116775760405162461bcd60e51b815260040161061590614c45565b7f9b85ff671b830162b81f1cb1253d54a6fee66e6f9760fc15cfc3fecccca8f1188c60c001518d602001518e604001518f60600151896020015188886040516116c697969594939291906149b2565b60405180910390a16000807f00000000000000000000000000000000000000000000000000000000000000006001600160a01b03168e604001516001600160a01b0316148061174a57507f00000000000000000000000000000000000000000000000000000000000000006001600160a01b03168e602001516001600160a01b0316145b156117895760608e01517f53656c6c000000000000000000000000000000000000000000000000000000009250611782908490612bb5565b90506117be565b60608e01517f427579000000000000000000000000000000000000000000000000000000000092506117bb9084612bb5565b90505b60008e5160018111156117cd57fe5b1415611866577f00000000000000000000000000000000000000000000000000000000000000006001600160a01b03168e602001516001600160a01b0316148061184c57507f00000000000000000000000000000000000000000000000000000000000000006001600160a01b03168e602001516001600160a01b0316145b15611861576112f783898d815181106112ea57fe5b611909565b60018e51600181111561187557fe5b1415611909577f00000000000000000000000000000000000000000000000000000000000000006001600160a01b03168e604001516001600160a01b031614806118f457507f00000000000000000000000000000000000000000000000000000000000000006001600160a01b03168e604001516001600160a01b0316145b15611909576112f783898e815181106112ea57fe5b50505b5050505050505b50949350505050565b60038054604080516020601f60026000196101006001881615020190951694909404938401819004810282018101909252828152606093909290918301828280156119a85780601f1061197d576101008083540402835291602001916119a8565b820191906000526020600020905b81548152906001019060200180831161198b57829003601f168201915b5050505050905090565b60006119bf338484612c12565b5060015b92915050565b60025490565b60008060006119dc612c7a565b1592506119e7612c97565b91506119f1612cbb565b9050909192565b6060611a026129c7565b905090565b600080611a1485336128f0565b9050611a38336001600160a01b0387161480611a305750838210155b61019e6129a6565b611a43858585612cdf565b336001600160a01b03861614801590611a5e57506000198114155b15611a7057611a708533858403612c12565b506001949350505050565b7f000000000000000000000000000000000000000000000000000000000000000090565b60055460ff1690565b6000611a0261292d565b611aba612dbf565b611ac26129b4565b611acb81612e05565b50565b7f000000000000000000000000000000000000000000000000000000000000000090565b3360008181526001602090815260408083206001600160a01b038716845290915281205490916119bf918590611b289086612e7e565b612c12565b611b35612dbf565b611b3f6000612e90565b565b600a5490565b611b4f612dbf565b611b576129b4565b611b618282612f21565b5050565b611b6d612dbf565b611b3f600161302f565b600854600090611a029060c0603f613086565b60006060611ba08651611b9b613095565b61309a565b611bb5898989898989896130a76130f9613162565b97509795505050505050565b6000611bcb6129b4565b600b546040517ff94d46680000000000000000000000000000000000000000000000000000000081526060916001600160a01b03169063f94d466890611c15908a90600401614a70565b60006040518083038186803b158015611c2d57600080fd5b505afa158015611c41573d6000803e3d6000fd5b505050506040513d6000823e601f3d908101601f19168201604052611c6991908101906141dd565b5091505060007f00000000000000000000000000000000000000000000000000000000000000008514611cbc577f0000000000000000000000000000000000000000000000000000000000000000611cde565b7f00000000000000000000000000000000000000000000000000000000000000005b905060007f00000000000000000000000000000000000000000000000000000000000000008514611d2f577f0000000000000000000000000000000000000000000000000000000000000000611d51565b7f00000000000000000000000000000000000000000000000000000000000000005b9050611d5b613efa565b808b6001811115611d6857fe5b90816001811115611d7557fe5b9052506001600160a01b038084166020830152821660408201526060810189905261010081018890523360c0820152600081516001811115611db357fe5b1480611dcb5750600181516001811115611dc957fe5b145b611de75760405162461bcd60e51b815260040161061590614c7c565b7f00000000000000000000000000000000000000000000000000000000000000006001600160a01b031681604001516001600160a01b03161480611e6057507f00000000000000000000000000000000000000000000000000000000000000006001600160a01b031681604001516001600160a01b0316145b80611ea057507f00000000000000000000000000000000000000000000000000000000000000006001600160a01b031681602001516001600160a01b0316145b80611ee057507f00000000000000000000000000000000000000000000000000000000000000006001600160a01b031681602001516001600160a01b0316145b611efc5760405162461bcd60e51b815260040161061590614ba0565b6060611f066129c7565b9050611f128582612b3a565b611f1a613eae565b60606000808086516001811115611f2d57fe5b1415611f5157611f478660600151868e8151811061077f57fe5b6060870152611f80565b600186516001811115611f6057fe5b1415611f8057611f7a8660600151868d8151811061077f57fe5b60608701525b7f00000000000000000000000000000000000000000000000000000000000000006001600160a01b031686602001516001600160a01b0316148015611fd15750600086516001811115611fcf57fe5b145b15612032578560600151897f00000000000000000000000000000000000000000000000000000000000000008151811061200757fe5b6020026020010151101561202d5760405162461bcd60e51b815260040161061590614c0e565b6120df565b7f00000000000000000000000000000000000000000000000000000000000000006001600160a01b031686602001516001600160a01b0316148015612083575060008651600181111561208157fe5b145b156120df578560600151897f0000000000000000000000000000000000000000000000000000000000000000815181106120b957fe5b602002602001015110156120df5760405162461bcd60e51b815260040161061590614cb3565b610100860151511561212e578561010001518060200190518101906121049190614547565b815191945092501561212e57811561212e5760408051808201909152806001815260200183905293505b600a54866060015110156121545760405162461bcd60e51b815260040161061590614bd7565b7f00000000000000000000000000000000000000000000000000000000000000006001600160a01b031686604001516001600160a01b031614806121cd57507f00000000000000000000000000000000000000000000000000000000000000006001600160a01b031686602001516001600160a01b0316145b1561227d576009546040517f65fe757e0000000000000000000000000000000000000000000000000000000081526001600160a01b03909116906365fe757e906122209089908890600190600401614cea565b606060405180830381600087803b15801561223a57600080fd5b505af115801561224e573d6000803e3d6000fd5b505050506040513d601f19601f82011682018060405250810190612272919061436c565b509091506123a19050565b7f00000000000000000000000000000000000000000000000000000000000000006001600160a01b031686604001516001600160a01b031614806122f657507f00000000000000000000000000000000000000000000000000000000000000006001600160a01b031686602001516001600160a01b0316145b156123a1576009546040517f65fe757e0000000000000000000000000000000000000000000000000000000081526001600160a01b03909116906365fe757e906123499089908890600090600401614cea565b606060405180830381600087803b15801561236357600080fd5b505af1158015612377573d6000803e3d6000fd5b505050506040513d601f19601f8201168201806040525081019061239b919061436c565b50909150505b7f9b85ff671b830162b81f1cb1253d54a6fee66e6f9760fc15cfc3fecccca8f1188660c00151876020015188604001518960600151886020015142876040516123f097969594939291906149b2565b60405180910390a15050505050505050509695505050505050565b7f000000000000000000000000000000000000000000000000000000000000000090565b6001600160a01b031660009081526020819052604090205490565b6060808861245961059a612606565b6124646105c0611ace565b60606000612471866132f9565b156124995761247e613328565b6124908961248a6119c9565b8861333b565b925090506124eb565b6124a1613367565b60606124ab6129c7565b90506124b78a82612b3a565b6124db8d8d8d8d8d6124c76126fb565b6124d1578d6124d4565b60005b878e6130a7565b935091506124e983826130f9565b505b6124f58b8261336f565b81895167ffffffffffffffff8111801561250e57600080fd5b50604051908082528060200260200182016040528015612538578160200160208202803683370190505b509450945050505b5097509795505050505050565b60006119c38261262a565b612560612dbf565b611b3f6001612e90565b60007f00000000000000000000000000000000000000000000000000000000000000008260405160200161259f929190614928565b604051602081830303815290604052805190602001209050919050565b600060606125cd8651611b9b613095565b611bb589898989898989613379613395613162565b7f000000000000000000000000000000000000000000000000000000000000000090565b7f000000000000000000000000000000000000000000000000000000000000000090565b6001600160a01b031660009081526006602052604090205490565b60048054604080516020601f60026000196101006001881615020190951694909404938401819004810282018101909252828152606093909290918301828280156119a85780601f1061197d576101008083540402835291602001916119a8565b6000806126b333856128f0565b90508083106126cd576126c833856000612c12565b6126da565b6126da3385858403612c12565b5060019392505050565b60006119bf338484612cdf565b6000611a026133fe565b600854600090611a029060ff613478565b612714612dbf565b611b3f600061302f565b7f000000000000000000000000000000000000000000000000000000000000000090565b60007f6e71edae12b1b97f4d1f60370fef10105fa2faae0126114a169c64845d6126c98888886127718c61262a565b8960405160200161278796959493929190614adf565b6040516020818303038152906040528051906020012090506127b888826127af878787613482565b886101f86134c1565b6127c3888888612c12565b5050505050505050565b606080886127dc61059a612606565b6127e76105c0611ace565b6127ef613367565b60606127f96129c7565b90506128036119c9565b6128b057600060606128188d8d8d868b613518565b9150915061283161282761363e565b83101560cc6129a6565b612843600061283e61363e565b613645565b6128568b61284f61363e565b8403613645565b6128608184613395565b808a5167ffffffffffffffff8111801561287957600080fd5b506040519080825280602002602001820160405280156128a3578160200160208202803683370190505b5095509550505050612540565b6128ba8882612b3a565b600060606128e28d8d8d8d8d6128ce6126fb565b6128d8578d6128db565b60005b898e613379565b915091506128568b83613645565b60006128fa612606565b6001600160a01b0316826001600160a01b0316141561291c57506000196119c3565b612926838361364f565b90506119c3565b6000611a0261367a565b6009546001600160a01b031681565b80611b6181613717565b600061295d848484613795565b5082821b6000196001831b01831b198516175b949350505050565b60006129888383111560016129a6565b50900390565b600081831061299d578161299f565b825b9392505050565b81611b6157611b61816137dc565b611b3f6129bf612c7a565b6101926129a6565b606060006129d3613095565b905060608167ffffffffffffffff811180156129ee57600080fd5b50604051908082528060200260200182016040528015612a18578160200160208202803683370190505b50905060005b82811015612b33577f0000000000000000000000000000000000000000000000000000000000000000811415612a8c577f0000000000000000000000000000000000000000000000000000000000000000828281518110612a7b57fe5b602002602001018181525050612b2b565b7f0000000000000000000000000000000000000000000000000000000000000000811415612ae1577f0000000000000000000000000000000000000000000000000000000000000000828281518110612a7b57fe5b7f0000000000000000000000000000000000000000000000000000000000000000811415612b2b57670de0b6b3a7640000828281518110612b1e57fe5b6020026020010181815250505b600101612a1e565b5091505090565b81518151612b4990829061309a565b60005b81811015612ba357612b84848281518110612b6357fe5b6020026020010151848381518110612b7757fe5b6020026020010151613806565b848281518110612b9057fe5b6020908102919091010152600101612b4c565b50505050565b600061299f8383613806565b6000612bc482151560046129a6565b82612bd1575060006119c3565b670de0b6b3a764000083810290612bf490858381612beb57fe5b041460056129a6565b828181612bfd57fe5b049150506119c3565b600061299f8383612bb5565b6001600160a01b0380841660008181526001602090815260408083209487168084529490915290819020849055517f8c5be1e5ebec7d5bd14f71427d1e84f3dd0314c0f7b2291e5b200ac8c7c3b92590612c6d908590614a70565b60405180910390a3505050565b6000612c84612cbb565b421180611a0257505060075460ff161590565b7f000000000000000000000000000000000000000000000000000000000000000090565b7f000000000000000000000000000000000000000000000000000000000000000090565b612cf66001600160a01b03841615156101986129a6565b612d0d6001600160a01b03831615156101996129a6565b612d18838383613790565b6001600160a01b038316600090815260208190526040902054612d3e90826101a061383c565b6001600160a01b038085166000908152602081905260408082209390935590841681522054612d6d9082612e7e565b6001600160a01b0380841660008181526020819052604090819020939093559151908516907fddf252ad1be2c89b69c2b068fc378daa952ba7f163c4a11628f55a4df523b3ef90612c6d908590614a70565b6000612dee6000357fffffffff000000000000000000000000000000000000000000000000000000001661256a565b9050611acb612dfd8233613852565b6101916129a6565b612e1a612e1061393b565b82101560cb6129a6565b612e2f612e25613944565b82111560ca6129a6565b600854612e40908260c0603f612950565b6008556040517fa9ba3ffe0b6c366b81232caab38605a0699ad5398d6cce76f91ee809e322dafc90612e73908390614a70565b60405180910390a150565b600082820161299f84821015836129a6565b8015612eb057612eab612ea1612c97565b42106101936129a6565b612ec5565b612ec5612ebb612cbb565b42106101a96129a6565b600780547fffffffffffffffffffffffffffffffffffffffffffffffffffffffffffffff00168215151790556040517f9e3a5e37224532dea67b89face185703738a228a6e8a23dee546960180d3be6490612e73908390614a4d565b6000612f2b611ace565b90506000612f37612606565b6001600160a01b031663b05f8e4883866040518363ffffffff1660e01b8152600401612f64929190614b58565b60806040518083038186803b158015612f7c57600080fd5b505afa158015612f90573d6000803e3d6000fd5b505050506040513d601f19601f82011682018060405250810190612fb49190614815565b6040517f18e736d40000000000000000000000000000000000000000000000000000000081529094506001600160a01b03851693506318e736d49250613001915085908790600401614b3f565b600060405180830381600087803b15801561301b57600080fd5b505af11580156127c3573d6000803e3d6000fd5b60085461303e908260ff613950565b6008556040517feff3d4d215b42bf0960be9c6d5e05c22cba4df6627a3a523e2acee733b5854c890613071908390614a4d565b60405180910390a180611acb57611acb611b3f565b6001901b6000190191901c1690565b600390565b611b6181831460676129a6565b6000606060006130b684613977565b905060018160018111156130c657fe5b146130db576130d66101636137dc565b6130eb565b6130e5888561398d565b90935091505b509850989650505050505050565b8151815161310890829061309a565b60005b81811015612ba35761314384828151811061312257fe5b602002602001015184838151811061313657fe5b6020026020010151612bb5565b84828151811061314f57fe5b602090810291909101015260010161310b565b333014613251576000306001600160a01b0316600036604051613186929190614958565b6000604051808303816000865af19150503d80600081146131c3576040519150601f19603f3d011682016040523d82523d6000602084013e6131c8565b606091505b5050905080600081146131d757fe5b60046000803e6000517fffffffff00000000000000000000000000000000000000000000000000000000167f43adbafb000000000000000000000000000000000000000000000000000000008114613233573d6000803e3d6000fd5b506020600460003e604060205260243d03602460403e601c3d016000f35b613259613367565b60606132636129c7565b905061326f8782612b3a565b600060606132878c8c8c8c8c8c898d8d63ffffffff16565b9150915061329981848663ffffffff16565b8051601f1982018390526343adbafb7fffffffffffffffffffffffffffffffffffffffffffffffffffffffffffffffc08301526020027fffffffffffffffffffffffffffffffffffffffffffffffffffffffffffffffdc82016044820181fd5b60008082511180156119c3575060ff80168280602001905181019061331e9190614855565b60ff161492915050565b611b3f6133336126fb565b6101b66129a6565b60006060600061334a84613a59565b90506060613359878784613a6f565b919791965090945050505050565b611b3f6129b4565b611b618282613b1e565b600060606133886101636137dc565b9850989650505050505050565b815181516133a490829061309a565b60005b81811015612ba3576133df8482815181106133be57fe5b60200260200101518483815181106133d257fe5b6020026020010151613bea565b8482815181106133eb57fe5b60209081029190910101526001016133a7565b6000613408612606565b6001600160a01b031663aaabadc56040518163ffffffff1660e01b815260040160206040518083038186803b15801561344057600080fd5b505afa158015613454573d6000803e3d6000fd5b505050506040513d601f19601f82011682018060405250810190611a0291906143d9565b1c60019081161490565b60408051604180825260808201909252606091829190602082018180368337019050509050836020820152826040820152846060820153949350505050565b60006134cc85613c38565b90506134e26134dc878387613c54565b836129a6565b6134f1428410156101b86129a6565b5050506001600160a01b039092166000908152600660205260409020805460010190555050565b600060606135246129b4565b7f000000000000000000000000000000000000000000000000000000000000000061355f6001600160a01b03888116908316146101566129a6565b61357f816001600160a01b0316876001600160a01b0316146101566129a6565b6dffffffffffffffffffffffffffff606061359986613d03565b90506135f8817f0000000000000000000000000000000000000000000000000000000000000000815181106135ca57fe5b60200260200101517f0000000000000000000000000000000000000000000000000000000000000000612ba9565b817f00000000000000000000000000000000000000000000000000000000000000008151811061362457fe5b602090810291909101015290999098509650505050505050565b620f424090565b611b618282613d19565b6001600160a01b03918216600090815260016020908152604080832093909416825291909152205490565b60007f00000000000000000000000000000000000000000000000000000000000000007f00000000000000000000000000000000000000000000000000000000000000007f00000000000000000000000000000000000000000000000000000000000000006136e7613dac565b306040516020016136fc959493929190614b13565b60405160208183030381529060405280519060200120905090565b60028151101561372657611acb565b60008160008151811061373557fe5b602002602001015190506000600190505b825181101561379057600083828151811061375d57fe5b60200260200101519050613786816001600160a01b0316846001600160a01b03161060656129a6565b9150600101613746565b505050565b6137a4610100831060646129a6565b6137cd600182101580156137c657506137c260ff846101000361298e565b8211155b60646129a6565b61379083821c156101b46129a6565b611acb817f42414c0000000000000000000000000000000000000000000000000000000000613db0565b600082820261382a84158061382357508385838161382057fe5b04145b60036129a6565b670de0b6b3a764000090049392505050565b600061384b84841115836129a6565b5050900390565b600073ba1ba1ba1ba1ba1ba1ba1ba1ba1ba1ba1ba1ba1b6138716125e2565b6001600160a01b03161415801561388c575061388c83613e11565b156138b4576138996125e2565b6001600160a01b0316336001600160a01b03161490506119c3565b6138bc6133fe565b6001600160a01b0316639be2a8848484306040518463ffffffff1660e01b81526004016138eb93929190614a79565b60206040518083038186803b15801561390357600080fd5b505afa158015613917573d6000803e3d6000fd5b505050506040513d601f19601f8201168201806040525081019061292691906142a9565b64e8d4a5100090565b67016345785d8a000090565b60006001821b1984168284613966576000613969565b60015b60ff16901b17949350505050565b6000818060200190518101906119c39190614443565b60006060600061399c84613e7f565b90506060855167ffffffffffffffff811180156139b857600080fd5b506040519080825280602002602001820160405280156139e2578160200160208202803683370190505b50905060005b8651811015613a4d577f00000000000000000000000000000000000000000000000000000000000000008114613a4557868181518110613a2457fe5b6020026020010151828281518110613a3857fe5b6020026020010181815250505b6001016139e8565b50909590945092505050565b60008180602001905181019061299f9190614871565b60606000613a7d8385612bb5565b9050845167ffffffffffffffff81118015613a9757600080fd5b50604051908082528060200260200182016040528015613ac1578160200160208202803683370190505b50915060005b8551811015613b1557613af682878381518110613ae057fe5b602002602001015161380690919063ffffffff16565b838281518110613b0257fe5b6020908102919091010152600101613ac7565b50509392505050565b613b356001600160a01b038316151561019b6129a6565b613b4182600083613790565b6001600160a01b038216600090815260208190526040902054613b6790826101b261383c565b6001600160a01b038316600090815260208190526040902055613b9a613b9582613b8f6119c9565b90613e95565b613ea3565b60006001600160a01b0316826001600160a01b03167fddf252ad1be2c89b69c2b068fc378daa952ba7f163c4a11628f55a4df523b3ef83604051613bde9190614a70565b60405180910390a35050565b6000613bf982151560046129a6565b82613c06575060006119c3565b670de0b6b3a764000083810290613c2090858381612beb57fe5b826001820381613c2c57fe5b046001019150506119c3565b6000613c4261367a565b8260405160200161259f929190614968565b6000613c6682516041146101b96129a6565b60208281015160408085015160608601518251600080825295019283905292939092811a91600190613c9f908990859088908890614b6f565b6020604051602081039080840390855afa158015613cc1573d6000803e3d6000fd5b5050604051601f1901519150506001600160a01b03811615801590613cf75750876001600160a01b0316816001600160a01b0316145b98975050505050505050565b60608180602001905181019061299f919061448c565b613d2560008383613790565b613d3a613b9582613d346119c9565b90612e7e565b6001600160a01b038216600090815260208190526040902054613d5d9082612e7e565b6001600160a01b0383166000818152602081905260408082209390935591519091907fddf252ad1be2c89b69c2b068fc378daa952ba7f163c4a11628f55a4df523b3ef90613bde908590614a70565b4690565b62461bcd60e51b600090815260206004526007602452600a808404818106603090810160081b958390069590950190829004918206850160101b01602363ffffff0060e086901c160160181b0190930160c81b60445260e882901c90606490fd5b6000613e3c7f38e9922e0000000000000000000000000000000000000000000000000000000061256a565b821480613e705750613e6d7f50dd6ed90000000000000000000000000000000000000000000000000000000061256a565b82145b806119c357506119c382613ea8565b60008180602001905181019061299f919061445f565b600061299f8383600161383c565b600255565b50600090565b604080518082019091526000808252602082015290565b6040805160c081018252600080825260208201819052918101829052606081018290526080810182905260a081019190915290565b60408051610120810190915280600081526000602082018190526040820181905260608083018290526080830182905260a0830182905260c0830182905260e08301919091526101009091015290565b80356119c381614e6c565b80516119c381614e6c565b600082601f830112613f70578081fd5b8135613f83613f7e82614dfc565b614dd5565b818152915060208083019084810181840286018201871015613fa457600080fd5b60005b84811015613fc357813584529282019290820190600101613fa7565b505050505092915050565b600082601f830112613fde578081fd5b8151613fec613f7e82614dfc565b81815291506020808301908481018184028601820187101561400d57600080fd5b60005b84811015613fc357815184529282019290820190600101614010565b600082601f83011261403c578081fd5b813561404a613f7e82614e1c565b915080825283602082850101111561406157600080fd5b8060208401602084013760009082016020015292915050565b80516119c381614e81565b8051600581106119c357600080fd5b8051600381106119c357600080fd5b80356119c381614e81565b6000602082840312156140bf578081fd5b813561299f81614e6c565b600080604083850312156140dc578081fd5b82356140e781614e6c565b915060208301356140f781614e6c565b809150509250929050565b600080600060608486031215614116578081fd5b833561412181614e6c565b9250602084013561413181614e6c565b929592945050506040919091013590565b600080600080600080600060e0888a03121561415c578485fd5b873561416781614e6c565b9650602088013561417781614e6c565b95506040880135945060608801359350608088013561419581614e8e565b9699959850939692959460a0840135945060c09093013592915050565b600080604083850312156141c4578182fd5b82356141cf81614e6c565b946020939093013593505050565b6000806000606084860312156141f1578081fd5b835167ffffffffffffffff80821115614208578283fd5b818601915086601f83011261421b578283fd5b8151614229613f7e82614dfc565b80828252602080830192508086018b828387028901011115614249578788fd5b8796505b8487101561427457805161426081614e6c565b84526001969096019592810192810161424d565b50890151909750935050508082111561428b578283fd5b5061429886828701613fce565b925050604084015190509250925092565b6000602082840312156142ba578081fd5b8151801515811461299f578182fd5b600080600080600080600060e0888a0312156142e3578081fd5b8735965060208801356142f581614e6c565b9550604088013561430581614e6c565b9450606088013567ffffffffffffffff80821115614321578283fd5b61432d8b838c01613f60565b955060808a0135945060a08a0135935060c08a0135915080821115614350578283fd5b5061435d8a828b0161402c565b91505092959891949750929550565b600080600060608486031215614380578081fd5b8351925060208401519150604084015190509250925092565b6000602082840312156143aa578081fd5b81357fffffffff000000000000000000000000000000000000000000000000000000008116811461299f578182fd5b6000602082840312156143ea578081fd5b815161299f81614e6c565b60008060408385031215614407578182fd5b823561441281614e6c565b9150602083013567ffffffffffffffff81111561442d578182fd5b6144398582860161402c565b9150509250929050565b600060208284031215614454578081fd5b815161299f81614e81565b60008060408385031215614471578182fd5b825161447c81614e81565b6020939093015192949293505050565b6000806040838503121561449e578182fd5b8251600481106144ac578283fd5b602084015190925067ffffffffffffffff8111156144c8578182fd5b61443985828601613fce565b60008060008060008060c087890312156144ec578384fd5b86356144f781614e81565b95506020870135945060408701359350606087013567ffffffffffffffff811115614520578283fd5b61452c89828a0161402c565b9350506080870135915060a087013590509295509295509295565b60008060408385031215614559578182fd5b825167ffffffffffffffff81111561456f578283fd5b8301601f8101851361457f578283fd5b805161458d613f7e82614e1c565b8181528660208385010111156145a1578485fd5b6145b2826020830160208601614e40565b60209590950151949694955050505050565b600080600080608085870312156145d9578182fd5b843567ffffffffffffffff808211156145f0578384fd5b818701915061012080838a031215614606578485fd5b61460f81614dd5565b905061461b89846140a3565b815261462a8960208501613f4a565b602082015261463c8960408501613f4a565b6040820152606083013560608201526080830135608082015260a083013560a082015261466c8960c08501613f4a565b60c082015261467e8960e08501613f4a565b60e08201526101008084013583811115614696578687fd5b6146a28b82870161402c565b8284015250508096505060208701359150808211156146bf578384fd5b506146cc87828801613f60565b949794965050505060408301359260600135919050565b60006101208083850312156146f6578182fd5b6146ff81614dd5565b905061470b848461407a565b815261471a8460208501613f55565b602082015261472c8460408501613f55565b604082015261473e8460608501614094565b6060820152614750846080850161407a565b60808201526147628460a08501614085565b60a082015260c083015160c082015261477e8460e08501613f55565b60e0820152610100928301519281019290925250919050565b600060c082840312156147a8578081fd5b6147b260c0614dd5565b8251815260208301516147c481614e6c565b8060208301525060408301516040820152606083015160608201526080830151608082015260a083015160a08201528091505092915050565b60006020828403121561480e578081fd5b5035919050565b6000806000806080858703121561482a578182fd5b845193506020850151925060408501519150606085015161484a81614e6c565b939692955090935050565b600060208284031215614866578081fd5b815161299f81614e8e565b60008060408385031215614883578182fd5b825161447c81614e8e565b6001600160a01b03169052565b6000815180845260208085019450808401835b838110156148ca578151875295820195908201906001016148ae565b509495945050505050565b600081518084526148ed816020860160208601614e40565b601f01601f19169290920160200192915050565b6002811061490b57fe5b9052565b80516003811061491b57fe5b8252602090810151910152565b9182527fffffffff0000000000000000000000000000000000000000000000000000000016602082015260240190565b6000828483379101908152919050565b7f190100000000000000000000000000000000000000000000000000000000000081526002810192909252602282015260420190565b6001600160a01b0391909116815260200190565b6001600160a01b03978816815295871660208701529390951660408501526060840191909152608083015260a082019290925260c081019190915260e00190565b6001600160a01b03929092168252602082015260400190565b60006020825261299f602083018461489b565b600060408252614a32604083018561489b565b8281036020840152614a44818561489b565b95945050505050565b901515815260200190565b92151583526020830191909152604082015260600190565b90815260200190565b9283526001600160a01b03918216602084015216604082015260600190565b9788526001600160a01b03968716602089015294861660408801526060870193909352608086019190915290921660a084015260c083019190915260e08201526101000190565b9586526001600160a01b0394851660208701529290931660408501526060840152608083019190915260a082015260c00190565b9485526020850193909352604084019190915260608301526001600160a01b0316608082015260a00190565b60008382526040602083015261297060408301846148d5565b9182526001600160a01b0316602082015260400190565b93845260ff9290921660208401526040830152606082015260800190565b60006020825261299f60208301846148d5565b60208082526016908201527f496e76616c6964207377617070656420746f6b656e7300000000000000000000604082015260600190565b60208082526018908201527f4f726465722062656c6f77206d696e696d756d2073697a650000000000000000604082015260600190565b6020808252601d908201527f496e73756666696369656e742063757272656e63792062616c616e6365000000604082015260600190565b60208082526016908201527f496e73756666696369656e74206c697175696469747900000000000000000000604082015260600190565b6020808252600c908201527f496e76616c696420737761700000000000000000000000000000000000000000604082015260600190565b6020808252601d908201527f496e73756666696369656e742073656375726974792062616c616e6365000000604082015260600190565b600060808252614cfe608083018651614901565b6020850151614d1060a084018261488e565b506040850151614d2360c084018261488e565b50606085015160e08301526080850151610100818185015260a08701519150610120828186015260c08801519250614d5f61014086018461488e565b60e08801519250614d7461016086018461488e565b818801519250806101808601525050614d916101a08401826148d5565b915050614da1602083018561490f565b6129706060830184614901565b600083825260406020830152612970604083018461489b565b60ff91909116815260200190565b60405181810167ffffffffffffffff81118282101715614df457600080fd5b604052919050565b600067ffffffffffffffff821115614e12578081fd5b5060209081020190565b600067ffffffffffffffff821115614e32578081fd5b50601f01601f191660200190565b60005b83811015614e5b578181015183820152602001614e43565b83811115612ba35750506000910152565b6001600160a01b0381168114611acb57600080fd5b60028110611acb57600080fd5b60ff81168114611acb57600080fdfea2646970667358221220c696c0034528610ba75afdc5633c8ccbe0eaf771284159e53704b3ea82d5cdef64736f6c63430007010033608060405260006002553480156200001657600080fd5b5060405162003e9a38038062003e9a833981016040819052620000399162000106565b620000443362000098565b600880546001600160a01b039586166001600160a01b031991821617909155600680549486169482169490941790935560078054928516928416929092179091556009805491909316911617905562000166565b600080546001600160a01b038381166001600160a01b0319831681178455604051919092169283917f8be0079c531659141344cd1fd0a4f28419497f9722a3daafe3b4186f6b6457e09190a35050565b80516001600160a01b03811681146200010057600080fd5b92915050565b600080600080608085870312156200011c578384fd5b620001288686620000e8565b9350620001398660208701620000e8565b92506200014a8660408701620000e8565b91506200015b8660608701620000e8565b905092959194509250565b613d2480620001766000396000f3fe608060405234801561001057600080fd5b50600436106101365760003560e01c806381b5da1d116100b2578063d6362e9711610081578063e43372e911610066578063e43372e914610266578063f2fde38b1461026e578063ff46bf301461028157610136565b8063d6362e971461024b578063d729cf6c1461025357610136565b806381b5da1d146101fd5780638da5cb5b14610210578063af18cfd814610218578063ca142f751461022b57610136565b80635778472a116101095780636945c1fd116100ee5780636945c1fd146101da578063715018a6146101e25780637489ec23146101ea57610136565b80635778472a1461019857806365fe757e146101b857610136565b80630c8605be1461013b5780632541897f1461015057806338fff2d01461016e57806346b8b73014610183575b600080fd5b61014e6101493660046137e0565b610289565b005b6101586103dd565b6040516101659190613965565b60405180910390f35b6101766103ec565b60405161016591906139b1565b61018b61047b565b6040516101659190613979565b6101ab6101a6366004613747565b610573565b6040516101659190613bae565b6101cb6101c63660046137f4565b61070c565b604051610165939291906139ba565b610158610aba565b61014e610ac9565b61014e6101f8366004613747565b610ae1565b61014e61020b366004613777565b610ca6565b610158610e3e565b61014e6102263660046137a2565b610e4d565b61023e61023936600461371c565b611118565b6040516101659190613c4e565b6101766111da565b61014e61026136600461371c565b61120f565b61018b6112ae565b61014e61027c366004613700565b61130f565b61017661133e565b6000808481526003602052604090206001015474010000000000000000000000000000000000000000900460ff1660028111156102c257fe5b14156102e95760405162461bcd60e51b81526004016102e090613a3e565b60405180910390fd5b6002600084815260036020526040902060010154760100000000000000000000000000000000000000000000900460ff16600481111561032557fe5b146103425760405162461bcd60e51b81526004016102e090613ae3565b600083815260036020819052604090912001546001600160a01b0316331461037c5760405162461bcd60e51b81526004016102e090613aac565b600083815260036020526040902060048101839055600280820183905560019182015474010000000000000000000000000000000000000000900460ff16908111156103c457fe5b14156103d8576103d58360016113bd565b50505b505050565b6006546001600160a01b031690565b600080600960009054906101000a90046001600160a01b03166001600160a01b03166338fff2d06040518163ffffffff1660e01b815260040160206040518083038186803b15801561043d57600080fd5b505afa158015610451573d6000803e3d6000fd5b505050506040513d601f19601f82011682018060405250810190610475919061375f565b91505090565b600154606090819067ffffffffffffffff8111801561049957600080fd5b506040519080825280602002602001820160405280156104c3578160200160208202803683370190505b5090506000805b60015481101561056b57336001600160a01b031660036000600184815481106104ef57fe5b600091825260208083206001600290930201919091015483528201929092526040019020600301546001600160a01b03161415610563576001818154811061053357fe5b90600052602060002090600202016001015483838151811061055157fe5b60209081029190910101526001909101905b6001016104ca565b509091505090565b61057b61357e565b610583610e3e565b6001600160a01b0316336001600160a01b031614806105ac57506008546001600160a01b031633145b806105d15750600082815260036020819052604090912001546001600160a01b031633145b6105ed5760405162461bcd60e51b81526004016102e090613a07565b60008281526003602052604090819020815161012081019092528054829060ff16600181111561061957fe5b600181111561062457fe5b8152815461010090046001600160a01b0390811660208301526001830154908116604083015260609091019074010000000000000000000000000000000000000000900460ff16600281111561067657fe5b600281111561068157fe5b81526020016001820160159054906101000a900460ff1660018111156106a357fe5b60018111156106ae57fe5b81526020016001820160169054906101000a900460ff1660048111156106d057fe5b60048111156106db57fe5b81526002820154602082015260038201546001600160a01b0316604082015260049091015460609091015292915050565b6000808061072e3361071c610e3e565b6001600160a01b0316146101aa611945565b60008551600281111561073d57fe5b1480610755575060018551600281111561075357fe5b145b61075e57600080fd5b600084600181111561076c57fe5b14806107835750600184600181111561078157fe5b145b61078c57600080fd5b6002544214156107a4576002805460010190556107a9565b426002555b60008660c001516002546040516020016107c4929190613930565b6040516020818303038152906040528051906020012090506107e461357e565b6040518061012001604052808960000151600181111561080057fe5b815260200189602001516001600160a01b0316815260200189604001516001600160a01b031681526020018860000151600281111561083b57fe5b815260200187600181111561084c57fe5b815260200160028152602001896060015181526020018960c001516001600160a01b0316815260200188602001518152509050806003600084815260200190815260200160002060008201518160000160006101000a81548160ff021916908360018111156108b757fe5b0217905550602082015181547fffffffffffffffffffffff0000000000000000000000000000000000000000ff166101006001600160a01b039283160217825560408301516001830180547fffffffffffffffffffffffff0000000000000000000000000000000000000000169190921617808255606084015191907fffffffffffffffffffffff00ffffffffffffffffffffffffffffffffffffffff167401000000000000000000000000000000000000000083600281111561097757fe5b021790555060808201518160010160156101000a81548160ff021916908360018111156109a057fe5b021790555060a08201516001820180547fffffffffffffffffff00ffffffffffffffffffffffffffffffffffffffffffff167601000000000000000000000000000000000000000000008360048111156109f657fe5b021790555060c0820151600282015560e08201516003820180547fffffffffffffffffffffffff0000000000000000000000000000000000000000166001600160a01b03909216919091179055610100909101516004909101556020870151610a5f9083611957565b600087516002811115610a6e57fe5b1415610a8d57610a8082826000611b34565b9450945094505050610ab1565b600187516002811115610a9c57fe5b1415610aae57610a8082826001611b34565b50505b93509350939050565b6007546001600160a01b031690565b610ad53361071c610e3e565b610adf6000612ca9565b565b6000808281526003602052604090206001015474010000000000000000000000000000000000000000900460ff166002811115610b1a57fe5b1415610b385760405162461bcd60e51b81526004016102e090613b51565b6002600082815260036020526040902060010154760100000000000000000000000000000000000000000000900460ff166004811115610b7457fe5b14610b915760405162461bcd60e51b81526004016102e090613ae3565b600081815260036020819052604090912001546001600160a01b03163314610bcb5760405162461bcd60e51b81526004016102e090613aac565b60005b600154811015610c0f578160018281548110610be657fe5b9060005260206000209060020201600101541415610c0757610c0781612d11565b600101610bce565b506000908152600360208190526040822080547fffffffffffffffffffffff0000000000000000000000000000000000000000001681556001810180547fffffffffffffffffff00000000000000000000000000000000000000000000001690556002810183905590810180547fffffffffffffffffffffffff000000000000000000000000000000000000000016905560040155565b6008546001600160a01b0316331480610cd75750610cc2610e3e565b6001600160a01b0316336001600160a01b0316145b610cf35760405162461bcd60e51b81526004016102e090613a75565b600092835260036020818152604080862080547fffffffffffffffffffffff0000000000000000000000000000000000000000009081168255600180830180547fffffffffffffffffff000000000000000000000000000000000000000000000090811690915560028085018b905584880180547fffffffffffffffffffffffff0000000000000000000000000000000000000000908116825560049687018d90559a8c52868c208054909516855584840180549093169092558381018b905583880180548b1681559385018b905590546001600160a01b039081168b52848752858b20898c528752858b208b815580840180548c1690558083018c90558089018c90558086018c905560059081018c90559354168a52838652848a20978a529690945291872087815592830180549096169095559281018590559081018490559182018390550155565b6000546001600160a01b031690565b6008546001600160a01b0316331480610e7e5750610e69610e3e565b6001600160a01b0316336001600160a01b0316145b610e9a5760405162461bcd60e51b81526004016102e090613a75565b6000826001811115610ea857fe5b1480610ebf57506001826001811115610ebd57fe5b145b610ec857600080fd5b60008481526003602052604090206002808201805486019055600191820180547fffffffffffffffffff00ffffffffffffffffffffffffffffffffffffffffffff16760200000000000000000000000000000000000000000000179081905574010000000000000000000000000000000000000000900460ff1690811115610f4c57fe5b1415610f6e57600084815260036020526040902060040154610f6e9085611957565b60018101610f7a6135d7565b5060008581526003602081815260408084208301546001600160a01b03908116855260048084528286208887528452828620835160c08101855281548082526001830154909416958101959095526002810154938501939093529382015460608401529281015460808301526005015460a082015291908714610ffe578151611000565b865b905060008783604001511461101957826040015161101b565b875b90506110256135d7565b506040805160c0810182528381526000938452600360208181528386208201546001600160a01b03908116828501908152848601968752606085018a815260808a81015190870190815260a09a8b01519a87019a8b529e89528484528689208501805484168a526004808652888b208d8c528652888b20975188559251600180890180547fffffffffffffffffffffffff00000000000000000000000000000000000000001692871692909217909155985160028801559051948601949094559c519c84019c909c5595516005928301555490991683529783529681208054978801815581522090940193909355505050565b6111206135d7565b611128610e3e565b6001600160a01b0316336001600160a01b0316148061114f5750336001600160a01b038416145b61116b5760405162461bcd60e51b81526004016102e090613b1a565b506001600160a01b038083166000908152600460208181526040808420868552825292839020835160c081018552815481526001820154909516918501919091526002810154928401929092526003820154606084015281015460808301526005015460a08201525b92915050565b600060016111ee6001805490506001612d59565b815481106111f857fe5b906000526020600020906002020160000154905090565b61121b3361071c610e3e565b60005b6001600160a01b0383166000908152600560205260409020548110156103d8576001600160a01b038316600090815260056020526040902080548391908390811061126557fe5b906000526020600020015414156112a6576001600160a01b038316600090815260056020526040902080548290811061129a57fe5b60009182526020822001555b60010161121e565b3360009081526005602090815260409182902080548351818402810184019094528084526060939283018282801561130557602002820191906000526020600020905b8154815260200190600101908083116112f1575b5050505050905090565b61131b3361071c610e3e565b6113326001600160a01b03821615156101ab611945565b61133b81612ca9565b50565b60008060016113536001805490506001612d59565b8154811061135d57fe5b9060005260206000209060020201600001549050600180548061137c57fe5b60008281526020812060027fffffffffffffffffffffffffffffffffffffffffffffffffffffffffffffffff90930192830201818155600101559055905090565b600060606000606060018054905067ffffffffffffffff811180156113e157600080fd5b5060405190808252806020026020018201604052801561140b578160200160208202803683370190505b5090506000805b600154811015611936576001818154811061142957fe5b906000526020600020906002020160000154600014156114485761192e565b6000600360006001848154811061145b57fe5b906000526020600020906002020160010154815260200190815260200160002060010160159054906101000a900460ff16600181111561149757fe5b1480156114dd5750600160008981526003602052604090206001908101547501000000000000000000000000000000000000000000900460ff16908111156114db57fe5b145b801561154c57506003600089815260200190815260200160002060040154600360006001848154811061150c57fe5b90600052602060002090600202016001015481526020019081526020016000206004015410158061154c5750600088815260036020526040902060040154155b8061165557506001600360006001848154811061156557fe5b906000526020600020906002020160010154815260200190815260200160002060010160159054906101000a900460ff1660018111156115a157fe5b1480156115e657506000808981526003602052604090206001908101547501000000000000000000000000000000000000000000900460ff16908111156115e457fe5b145b801561165557506003600089815260200190815260200160002060040154600360006001848154811061161557fe5b9060005260206000209060020201600101548152602001908152602001600020600401541115806116555750600088815260036020526040902060040154155b1561192e576001818154811061166757fe5b90600052602060002090600202016001015483838151811061168557fe5b60209081029190910181019190915260065460008a8152600390925260409091205461010090046001600160a01b0390811691161480156116e0575060008881526003602052604081205460ff1660018111156116de57fe5b145b8061173157506007546000898152600360205260409020600101546001600160a01b0390811691161480156117315750600160008981526003602052604090205460ff16600181111561172f57fe5b145b1561177b5761177484600360006001858154811061174b57fe5b906000526020600020906002020160010154815260200190815260200160002060020154612d6f565b9350611802565b6117ff846117fa600360006001868154811061179357fe5b90600052602060002090600202016001015481526020019081526020016000206002015460036000600187815481106117c857fe5b906000526020600020906002020160010154815260200190815260200160002060040154612d8890919063ffffffff16565b612d6f565b93505b600087600281111561181057fe5b1415801561183c5750876001828154811061182757fe5b90600052602060002090600202016001015414155b15611861578783838060010194508151811061185457fe5b6020026020010181815250505b60065460008981526003602052604090205461010090046001600160a01b0390811691161480156118ac575060008881526003602052604081205460ff1660018111156118aa57fe5b145b806118fd575060075460008981526003602052604090205461010090046001600160a01b0390811691161480156118fd575060008881526003602052604081205460ff1660018111156118fb57fe5b145b156119275760008881526003602052604090206002015484106119275750919350915061193e9050565b6001909101905b600101611412565b509193509150505b9250929050565b816119535761195381612dbe565b5050565b6040805180820190915282815260208101828152600180548082018255600082815293517fb10e2d527612073b26eecdfd717e6a320cf44b4afac2b0732d9fcbe2b7fa0cf660029092029182015591517fb10e2d527612073b26eecdfd717e6a320cf44b4afac2b0732d9fcbe2b7fa0cf79092019190915580546119da91612d59565b90505b600081118015611a3e5750600181815481106119f557fe5b9060005260206000209060020201600001546001611a20611a17846000612d59565b60026000612de8565b81548110611a2a57fe5b906000526020600020906002020160000154105b156103d857611a4b61360c565b6001611a5a8360026000612de8565b81548110611a6457fe5b906000526020600020906002020160405180604001604052908160008201548152602001600182015481525050905060018281548110611aa057fe5b90600052602060002090600202016001611abd8460026000612de8565b81548110611ac757fe5b906000526020600020906002020160008201548160000155600182015481600101559050508060018381548110611afa57fe5b90600052602060002090600202016000820151816000015560208201518160010155905050611b2c8260026000612de8565b9150506119dd565b60008060008060008080600090506000806000606060018054905067ffffffffffffffff81118015611b6557600080fd5b50604051908082528060200260200182016040528015611b8f578160200160208202803683370190505b509050611b9c8e8d6113bd565b909250905060008c6002811115611baf57fe5b1415611bdd578c60c00151821015611bd8578d4260009a509a509a505050505050505050610ab1565b611c0d565b60018c6002811115611beb57fe5b1415611c0d5781611c0d578d4260009a509a509a505050505050505050610ab1565b600091505b8051821015612c985760c08d0151611c2957612c98565b8d818381518110611c3657fe5b602002602001015114158015611c8f57508c60e001516001600160a01b031660036000838581518110611c6557fe5b6020908102919091018101518252810191909152604001600020600301546001600160a01b031614155b8015611cdd5750600060036000838581518110611ca857fe5b6020026020010151815260200190815260200160002060010160169054906101000a900460ff166004811115611cda57fe5b14155b15611f0d5760036000828481518110611cf257fe5b60200260200101518152602001908152602001600020600401546000148015611d1e57506101008d0151155b15611d2857612c8d565b600060036000838581518110611d3a57fe5b6020026020010151815260200190815260200160002060010160159054906101000a900460ff166001811115611d6c57fe5b148015611d88575060018d608001516001811115611d8657fe5b145b15611e1d578c610100015160036000838581518110611da357fe5b6020026020010151815260200190815260200160002060040154101580611dcd57506101008d0151155b15611e185760036000828481518110611de257fe5b60200260200101518152602001908152602001600020600401549650808281518110611e0a57fe5b602002602001015197508194505b611f0d565b600160036000838581518110611e2f57fe5b6020026020010151815260200190815260200160002060010160159054906101000a900460ff166001811115611e6157fe5b148015611e7d575060008d608001516001811115611e7b57fe5b145b15611f0d578c610100015160036000838581518110611e9857fe5b6020026020010151815260200190815260200160002060040154111580611ec257506101008d0151155b15611f0d5760036000828481518110611ed757fe5b60200260200101518152602001908152602001600020600401549650808281518110611eff57fe5b602002602001015195508194505b60018d608001516001811115611f1f57fe5b14156125fb5787156125f65760065460208e01516001600160a01b039081169116148015611f59575060008d516001811115611f5757fe5b145b156122a35760075460008981526003602052604090205461010090046001600160a01b039081169116148015611fa9575060008881526003602052604081205460ff166001811115611fa757fe5b145b15611fd157600088815260036020526040902060020154611fca9088612e10565b9350612036565b6006546000898152600360205260409020600101546001600160a01b03908116911614801561201c5750600160008981526003602052604090205460ff16600181111561201a57fe5b145b156120365760008881526003602052604090206002015493505b8c60c00151841061221d5760c08d015193506120528488612d88565b60075460008a8152600360205260409020549194506001600160a01b03908116610100909204161480156120a25750600160008981526003602052604090205460ff1660018111156120a057fe5b145b6120c7576000888152600360205260409020600201546120c29084612d59565b6120e8565b60008881526003602052604090206002015460c08e01516120e89190612d59565b600360008a81526020019081526020016000206002018190555060008d60c001818152505060036000898152602001908152602001600020600201546000141561217157600088815260036020526040902060010180547fffffffffffffffffff00ffffffffffffffffffffffffffffffffffffffffffff16905561216c85612d11565b6121c2565b600088815260036020526040902060010180547fffffffffffffffffff00ffffffffffffffffffffffffffffffffffffffffffff167601000000000000000000000000000000000000000000001790555b600060a08e01526121d58e898686612e61565b945060008d6060015160028111156121e957fe5b14156122185760006122018f8f60e00151600161315b565b8f9c50959a50949850610ab1975050505050505050565b61229e565b831561229e5761222d8488612d88565b925061223d8d60c0015185612d59565b60c08e015260008881526003602052604081206002810191909155600190810180547fffffffffffffffffff00ffffffffffffffffffffffffffffffffffffffffffff16905560a08e01526122948e898686612e61565b5061229e85612d11565b6125f6565b60075460408e01516001600160a01b0390811691161480156122d1575060018d5160018111156122cf57fe5b145b156125f6576006546000898152600360205260409020600101546001600160a01b0390811691161480156123215750600160008981526003602052604090205460ff16600181111561231f57fe5b145b15612349576000888152600360205260409020600201546123429088612d88565b92506123ae565b60075460008981526003602052604090205461010090046001600160a01b039081169116148015612394575060008881526003602052604081205460ff16600181111561239257fe5b145b156123ae5760008881526003602052604090206002015492505b8c60c0015183106125755760c08d015192506123ca8388612e10565b60065460008a8152600360205260409020600101549195506001600160a01b039182169116148015612416575060008881526003602052604081205460ff16600181111561241457fe5b145b61243b576000888152600360205260409020600201546124369085612d59565b61245c565b60008881526003602052604090206002015460c08e015161245c9190612d59565b600360008a81526020019081526020016000206002018190555060008d60c00181815250506003600089815260200190815260200160002060020154600014156124e557600088815260036020526040902060010180547fffffffffffffffffff00ffffffffffffffffffffffffffffffffffffffffffff1690556124e085612d11565b612536565b600088815260036020526040902060010180547fffffffffffffffffff00ffffffffffffffffffffffffffffffffffffffffffff167601000000000000000000000000000000000000000000001790555b600060a08e01526125498e898686612e61565b945060008d60600151600281111561255d57fe5b141561229e5760006122018f8f60e00151600061315b565b82156125f6576125858388612e10565b93506125958d60c0015184612d59565b60c08e015260008881526003602052604081206002810191909155600190810180547fffffffffffffffffff00ffffffffffffffffffffffffffffffffffffffffffff16905560a08e01526125ec8e898686612e61565b506125f685612d11565b612c8d565b60008d60800151600181111561260d57fe5b1415612c8d578515612c8d5760075460208e01516001600160a01b039081169116148015612647575060008d51600181111561264557fe5b145b156129385760065460008781526003602052604090205461010090046001600160a01b039081169116148015612697575060008681526003602052604081205460ff16600181111561269557fe5b145b156126bf576000868152600360205260409020600201546126b89088612d88565b9250612724565b6007546000878152600360205260409020600101546001600160a01b03908116911614801561270a5750600160008781526003602052604090205460ff16600181111561270857fe5b145b156127245760008681526003602052604090206002015492505b8c60c0015183106128c15760c08d015192506127408388612e10565b6007546000888152600360205260409020600101549195506001600160a01b03918216911614801561278e5750600160008781526003602052604090205460ff16600181111561278c57fe5b145b6127b3576000868152600360205260409020600201546127ae9085612d59565b6127d4565b60008681526003602052604090206002015460c08e01516127d49190612d59565b600360008881526020019081526020016000206002018190555060008d60c001818152505060036000878152602001908152602001600020600201546000141561285d57600086815260036020526040902060010180547fffffffffffffffffff00ffffffffffffffffffffffffffffffffffffffffffff16905561285885612d11565b6128ae565b600086815260036020526040902060010180547fffffffffffffffffff00ffffffffffffffffffffffffffffffffffffffffffff167601000000000000000000000000000000000000000000001790555b600060a08e01526125498e878686612e61565b82156125f6576128d18388612e10565b93506128e18d60c0015184612d59565b60c08e015260008681526003602052604081206002810191909155600190810180547fffffffffffffffffff00ffffffffffffffffffffffffffffffffffffffffffff16905560a08e01526125ec8e878686612e61565b60065460408e01516001600160a01b039081169116148015612966575060018d51600181111561296457fe5b145b15612c8d576007546000878152600360205260409020600101546001600160a01b0390811691161480156129b65750600160008781526003602052604090205460ff1660018111156129b457fe5b145b156129de576000868152600360205260409020600201546129d79088612e10565b9350612a43565b60065460008781526003602052604090205461010090046001600160a01b039081169116148015612a29575060008681526003602052604081205460ff166001811115612a2757fe5b145b15612a435760008681526003602052604090206002015493505b8c60c001518410612c0c5760c08d01519350612a5f8488612d88565b6006546000888152600360205260409020549194506001600160a01b0390811661010090920416148015612aad575060008681526003602052604081205460ff166001811115612aab57fe5b145b612ad257600086815260036020526040902060020154612acd9084612d59565b612af3565b60008681526003602052604090206002015460c08e0151612af39190612d59565b600360008881526020019081526020016000206002018190555060008d60c0018181525050600360008781526020019081526020016000206002015460001415612b7c57600086815260036020526040902060010180547fffffffffffffffffff00ffffffffffffffffffffffffffffffffffffffffffff169055612b7785612d11565b612bcd565b600086815260036020526040902060010180547fffffffffffffffffff00ffffffffffffffffffffffffffffffffffffffffffff167601000000000000000000000000000000000000000000001790555b600060a08e0152612be08e878686612e61565b945060008d606001516002811115612bf457fe5b14156125f65760006122018f8f60e00151600161315b565b8315612c8d57612c1c8488612d88565b9250612c2c8d60c0015185612d59565b60c08e015260008681526003602052604081206002810191909155600190810180547fffffffffffffffffff00ffffffffffffffffffffffffffffffffffffffffffff16905560a08e0152612c838e878686612e61565b50612c8d85612d11565b600190910190611c12565b505050505050505093509350939050565b600080546001600160a01b038381167fffffffffffffffffffffffff0000000000000000000000000000000000000000831681178455604051919092169283917f8be0079c531659141344cd1fd0a4f28419497f9722a3daafe3b4186f6b6457e09190a35050565b600154612d305760405162461bcd60e51b81526004016102e0906139d0565b600060018281548110612d3f57fe5b600091825260209091206002909102015561133b81613302565b6000612d69838311156001611945565b50900390565b6000828201612d818482101583611945565b9392505050565b6000828202612dac841580612da5575083858381612da257fe5b04145b6003611945565b670de0b6b3a764000090049392505050565b61133b817f42414c00000000000000000000000000000000000000000000000000000000006134b0565b600081612dfe57612df98484613511565b612e08565b612e088484613531565b949350505050565b6000612e1f8215156004611945565b82612e2c575060006111d4565b670de0b6b3a764000083810290612e4f90858381612e4657fe5b04146005611945565b828181612e5857fe5b049150506111d4565b6002805460010190819055600090612e776135d7565b6040518060c00160405280888152602001600360008a815260200190815260200160002060030160009054906101000a90046001600160a01b03166001600160a01b031681526020018781526020018381526020018681526020018581525090508060046000600360008b815260200190815260200160002060030160009054906101000a90046001600160a01b03166001600160a01b03166001600160a01b0316815260200190815260200160002060008481526020019081526020016000206000820151816000015560208201518160010160006101000a8154816001600160a01b0302191690836001600160a01b0316021790555060408201518160020155606082015181600301556080820151816004015560a082015181600501559050508060046000600360008a815260200190815260200160002060030160009054906101000a90046001600160a01b03166001600160a01b03166001600160a01b0316815260200190815260200160002060008481526020019081526020016000206000820151816000015560208201518160010160006101000a8154816001600160a01b0302191690836001600160a01b0316021790555060408201518160020155606082015181600301556080820151816004015560a0820151816005015590505060056000600360008a815260200190815260200160002060030160009054906101000a90046001600160a01b03166001600160a01b03166001600160a01b0316815260200190815260200160002081606001519080600181540180825580915050600190039060005260206000200160009091909190915055600560006003600089815260200190815260200160002060030160009054906101000a90046001600160a01b03166001600160a01b03166001600160a01b03168152602001908152602001600020816060015190806001815401808255809150506001900390600052602060002001600090919091909150558192505050949350505050565b60008060006131686135d7565b60005b6001600160a01b0387166000908152600560205260409020548110156132f6576001600160a01b03871660009081526005602052604090208054829081106131af57fe5b60009182526020808320909101546001600160a01b03808b16845260048084526040808620848752855294859020855160c081018752815480825260018301549094169581019590955260028101549585019590955260038501546060850152840154608084015260059093015460a0830152955092508814156132545760008661323e578260800151613244565b8260a001515b90506132508482612d6f565b9350505b6001600160a01b038716600090815260056020526040902080548290811061327857fe5b600091825260208083209091018290556001600160a01b038916825260048082526040808420888552909252908220828155600180820180547fffffffffffffffffffffffff00000000000000000000000000000000000000001690556002820184905560038201849055918101839055600501919091550161316b565b50909695505050505050565b6001805461330f91612d59565b61331a826002613564565b101561133b576000613337613330836002613564565b6001612d6f565b905060006001828154811061334857fe5b60009182526020822060029091020154915060016133668482612d6f565b8154811061337057fe5b90600052602060002090600202016000015490508082101561339a57613397836001612d6f565b92505b600183815481106133a757fe5b906000526020600020906002020160000154600185815481106133c657fe5b90600052602060002090600202016000015411156133e65750505061133b565b6133ee61360c565b600185815481106133fb57fe5b90600052602060002090600202016040518060400160405290816000820154815260200160018201548152505090506001848154811061343757fe5b90600052602060002090600202016001868154811061345257fe5b90600052602060002090600202016000820154816000015560018201548160010155905050806001858154811061348557fe5b6000918252602091829020835160029092020190815591015160019091015550919250613302915050565b62461bcd60e51b600090815260206004526007602452600a808404818106603090810160081b958390069590950190829004918206850160101b01602363ffffff0060e086901c160160181b0190930160c81b60445260e882901c90606490fd5b60006135208215156004611945565b81838161352957fe5b049392505050565b60006135408215156004611945565b8261354d575060006111d4565b81600184038161355957fe5b0460010190506111d4565b6000828202612d81841580612da5575083858381612da257fe5b604080516101208101909152806000815260006020820181905260408201819052606090910190815260200160008152602001600081526020016000815260200160006001600160a01b03168152602001600081525090565b6040805160c081018252600080825260208201819052918101829052606081018290526080810182905260a081019190915290565b604080518082019091526000808252602082015290565b80356111d481613ccc565b600082601f83011261363e578081fd5b813567ffffffffffffffff811115613654578182fd5b61368560207fffffffffffffffffffffffffffffffffffffffffffffffffffffffffffffffe0601f84011601613c9b565b915080825283602082850101111561369c57600080fd5b8060208401602084013760009082016020015292915050565b80356111d481613ce1565b6000604082840312156136d1578081fd5b6136db6040613c9b565b90508135600381106136ec57600080fd5b808252506020820135602082015292915050565b600060208284031215613711578081fd5b8135612d8181613ccc565b6000806040838503121561372e578081fd5b823561373981613ccc565b946020939093013593505050565b600060208284031215613758578081fd5b5035919050565b600060208284031215613770578081fd5b5051919050565b60008060006060848603121561378b578081fd5b505081359360208301359350604090920135919050565b600080600080608085870312156137b7578081fd5b843593506020850135925060408501356137d081613ce1565b9396929550929360600135925050565b60008060006060848603121561378b578283fd5b600080600060808486031215613808578283fd5b833567ffffffffffffffff8082111561381f578485fd5b8186019150610120808389031215613835578586fd5b61383e81613c9b565b905061384a88846136b5565b81526138598860208501613623565b602082015261386b8860408501613623565b6040820152606083013560608201526080830135608082015260a083013560a082015261389b8860c08501613623565b60c08201526138ad8860e08501613623565b60e082015261010080840135838111156138c5578788fd5b6138d18a82870161362e565b8284015250508095505050506138ea85602086016136c0565b91506138f985606086016136b5565b90509250925092565b6001600160a01b03169052565b6005811061391957fe5b9052565b6003811061391957fe5b61391981613cc2565b60609290921b7fffffffffffffffffffffffffffffffffffffffff000000000000000000000000168252601482015260340190565b6001600160a01b0391909116815260200190565b6020808252825182820181905260009190848201906040850190845b818110156132f657835183529284019291840191600101613995565b90815260200190565b9283526020830191909152604082015260600190565b6020808252601c908201527f4f72646572626f6f6b206973206e6f7420696e697469616c697a656400000000604082015260600190565b6020808252601d908201527f556e617574686f72697a65642061636365737320746f206f7264657273000000604082015260600190565b6020808252601f908201527f4d61726b6574206f726465722063616e206e6f74206265206368616e67656400604082015260600190565b60208082526013908201527f556e617574686f72697a65642061636365737300000000000000000000000000604082015260600190565b6020808252601b908201527f53656e646572206973206e6f74206f726465722063726561746f720000000000604082015260600190565b60208082526017908201527f4f7264657220697320616c72656164792066696c6c6564000000000000000000604082015260600190565b6020808252601d908201527f556e617574686f72697a65642061636365737320746f20747261646573000000604082015260600190565b60208082526021908201527f4d61726b6574206f726465722063616e206e6f742062652063616e63656c6c6560408201527f6400000000000000000000000000000000000000000000000000000000000000606082015260800190565b8151610120820190613bbf81613cc2565b808352506001600160a01b0360208401511660208301526040830151613be86040840182613902565b506060830151613bfb606084018261391d565b506080830151613c0e6080840182613927565b5060a0830151613c2160a084018261390f565b5060c083015160c083015260e0830151613c3e60e0840182613902565b5061010092830151919092015290565b600060c082019050825182526001600160a01b03602084015116602083015260408301516040830152606083015160608301526080830151608083015260a083015160a083015292915050565b60405181810167ffffffffffffffff81118282101715613cba57600080fd5b604052919050565b6002811061133b57fe5b6001600160a01b038116811461133b57600080fd5b6002811061133b57600080fdfea2646970667358221220877be9359f67c2a8cd4be48c191c8c583314f74d27afa15de7d969d6cc58461964736f6c63430007010033",
  "linkReferences": {},
  "deployedLinkReferences": {}
}